{
  "_format": "hh-sol-artifact-1",
  "contractName": "Create",
  "sourceName": "contracts/VotingContract.sol",
  "abi": [
    {
      "inputs": [],
      "stateMutability": "nonpayable",
      "type": "constructor"
    },
    {
      "anonymous": false,
      "inputs": [
        {
          "indexed": true,
          "internalType": "uint256",
          "name": "candidateId",
          "type": "uint256"
        },
        {
          "indexed": false,
          "internalType": "string",
          "name": "age",
          "type": "string"
        },
        {
          "indexed": false,
          "internalType": "string",
          "name": "name",
          "type": "string"
        },
        {
          "indexed": false,
          "internalType": "string",
          "name": "image",
          "type": "string"
        },
        {
          "indexed": false,
          "internalType": "uint256",
          "name": "voteCount",
          "type": "uint256"
        },
        {
          "indexed": false,
          "internalType": "address",
          "name": "_address",
          "type": "address"
        },
        {
          "indexed": false,
          "internalType": "string",
          "name": "ipfs",
          "type": "string"
        }
      ],
      "name": "CandidateCreate",
      "type": "event"
    },
    {
      "anonymous": false,
      "inputs": [
        {
          "indexed": true,
          "internalType": "uint256",
          "name": "voter_voterId",
          "type": "uint256"
        },
        {
          "indexed": false,
          "internalType": "string",
          "name": "voter_name",
          "type": "string"
        },
        {
          "indexed": false,
          "internalType": "string",
          "name": "voter_image",
          "type": "string"
        },
        {
          "indexed": false,
          "internalType": "address",
          "name": "voter_address",
          "type": "address"
        },
        {
          "indexed": false,
          "internalType": "uint256",
          "name": "voter_allowed",
          "type": "uint256"
        },
        {
          "indexed": false,
          "internalType": "bool",
          "name": "voter_voted",
          "type": "bool"
        },
        {
          "indexed": false,
          "internalType": "uint256",
          "name": "voter_vote",
          "type": "uint256"
        },
        {
          "indexed": false,
          "internalType": "string",
          "name": "voter_ipfs",
          "type": "string"
        },
        {
          "indexed": false,
          "internalType": "bool",
          "name": "is_candidate",
          "type": "bool"
        }
      ],
      "name": "VoterCreated",
      "type": "event"
    },
    {
      "inputs": [],
      "name": "_candidateId",
      "outputs": [
        {
          "internalType": "uint256",
          "name": "_value",
          "type": "uint256"
        }
      ],
      "stateMutability": "view",
      "type": "function"
    },
    {
      "inputs": [],
      "name": "_voterId",
      "outputs": [
        {
          "internalType": "uint256",
          "name": "_value",
          "type": "uint256"
        }
      ],
      "stateMutability": "view",
      "type": "function"
    },
    {
      "inputs": [
        {
          "internalType": "uint256",
          "name": "",
          "type": "uint256"
        }
      ],
      "name": "candidateAddress",
      "outputs": [
        {
          "internalType": "address",
          "name": "",
          "type": "address"
        }
      ],
      "stateMutability": "view",
      "type": "function"
    },
    {
      "inputs": [
        {
          "internalType": "address",
          "name": "",
          "type": "address"
        }
      ],
      "name": "candidates",
      "outputs": [
        {
          "internalType": "uint256",
          "name": "candidateId",
          "type": "uint256"
        },
        {
          "internalType": "string",
          "name": "age",
          "type": "string"
        },
        {
          "internalType": "string",
          "name": "name",
          "type": "string"
        },
        {
          "internalType": "string",
          "name": "image",
          "type": "string"
        },
        {
          "internalType": "uint256",
          "name": "voteCount",
          "type": "uint256"
        },
        {
          "internalType": "address",
          "name": "_address",
          "type": "address"
        },
        {
          "internalType": "string",
          "name": "ipfs",
          "type": "string"
        }
      ],
      "stateMutability": "view",
      "type": "function"
    },
    {
      "inputs": [],
      "name": "getCandidate",
      "outputs": [
        {
          "internalType": "address[]",
          "name": "",
          "type": "address[]"
        }
      ],
      "stateMutability": "view",
      "type": "function"
    },
    {
      "inputs": [
        {
          "internalType": "address",
          "name": "_address",
          "type": "address"
        }
      ],
      "name": "getCandidateData",
      "outputs": [
        {
          "internalType": "string",
          "name": "",
          "type": "string"
        },
        {
          "internalType": "string",
          "name": "",
          "type": "string"
        },
        {
          "internalType": "uint256",
          "name": "",
          "type": "uint256"
        },
        {
          "internalType": "string",
          "name": "",
          "type": "string"
        },
        {
          "internalType": "uint256",
          "name": "",
          "type": "uint256"
        },
        {
          "internalType": "string",
          "name": "",
          "type": "string"
        },
        {
          "internalType": "address",
          "name": "",
          "type": "address"
        }
      ],
      "stateMutability": "view",
      "type": "function"
    },
    {
      "inputs": [],
      "name": "getCandidateLength",
      "outputs": [
        {
          "internalType": "uint256",
          "name": "",
          "type": "uint256"
        }
      ],
      "stateMutability": "view",
      "type": "function"
    },
    {
      "inputs": [],
      "name": "getOrganizerAddress",
      "outputs": [
        {
          "internalType": "address",
          "name": "",
          "type": "address"
        }
      ],
      "stateMutability": "view",
      "type": "function"
    },
    {
      "inputs": [],
      "name": "getVotedVotersList",
      "outputs": [
        {
          "internalType": "address[]",
          "name": "",
          "type": "address[]"
        }
      ],
      "stateMutability": "view",
      "type": "function"
    },
    {
      "inputs": [
        {
          "internalType": "address",
          "name": "_address",
          "type": "address"
        }
      ],
      "name": "getVoterData",
      "outputs": [
        {
          "internalType": "uint256",
          "name": "",
          "type": "uint256"
        },
        {
          "internalType": "string",
          "name": "",
          "type": "string"
        },
        {
          "internalType": "string",
          "name": "",
          "type": "string"
        },
        {
          "internalType": "address",
          "name": "",
          "type": "address"
        },
        {
          "internalType": "string",
          "name": "",
          "type": "string"
        },
        {
          "internalType": "uint256",
          "name": "",
          "type": "uint256"
        },
        {
          "internalType": "bool",
          "name": "",
          "type": "bool"
        },
        {
          "internalType": "bool",
          "name": "",
          "type": "bool"
        }
      ],
      "stateMutability": "view",
      "type": "function"
    },
    {
      "inputs": [],
      "name": "getVoterLength",
      "outputs": [
        {
          "internalType": "uint256",
          "name": "",
          "type": "uint256"
        }
      ],
      "stateMutability": "view",
      "type": "function"
    },
    {
      "inputs": [],
      "name": "getVoterList",
      "outputs": [
        {
          "internalType": "address[]",
          "name": "",
          "type": "address[]"
        }
      ],
      "stateMutability": "view",
      "type": "function"
    },
    {
      "inputs": [],
      "name": "getWinner",
      "outputs": [
        {
          "internalType": "address",
          "name": "winner",
          "type": "address"
        }
      ],
      "stateMutability": "nonpayable",
      "type": "function"
    },
    {
      "inputs": [],
      "name": "getWinningAddressAfterVoteComplete",
      "outputs": [
        {
          "internalType": "address",
          "name": "",
          "type": "address"
        }
      ],
      "stateMutability": "view",
      "type": "function"
    },
    {
      "inputs": [],
      "name": "isVotingEnded",
      "outputs": [
        {
          "internalType": "bool",
          "name": "",
          "type": "bool"
        }
      ],
      "stateMutability": "view",
      "type": "function"
    },
    {
      "inputs": [
        {
          "internalType": "address",
          "name": "_address",
          "type": "address"
        },
        {
          "internalType": "string",
          "name": "_age",
          "type": "string"
        },
        {
          "internalType": "string",
          "name": "_name",
          "type": "string"
        },
        {
          "internalType": "string",
          "name": "_image",
          "type": "string"
        },
        {
          "internalType": "string",
          "name": "_ipfs",
          "type": "string"
        }
      ],
      "name": "setCandidate",
      "outputs": [],
      "stateMutability": "nonpayable",
      "type": "function"
    },
    {
      "inputs": [
        {
          "internalType": "address",
          "name": "_candidateAddress",
          "type": "address"
        },
        {
          "internalType": "uint256",
          "name": "_candidateVoteId",
          "type": "uint256"
        }
      ],
      "name": "vote",
      "outputs": [],
      "stateMutability": "nonpayable",
      "type": "function"
    },
    {
      "inputs": [
        {
          "internalType": "uint256",
          "name": "",
          "type": "uint256"
        }
      ],
      "name": "votedVoters",
      "outputs": [
        {
          "internalType": "address",
          "name": "",
          "type": "address"
        }
      ],
      "stateMutability": "view",
      "type": "function"
    },
    {
      "inputs": [
        {
          "internalType": "address",
          "name": "_address",
          "type": "address"
        },
        {
          "internalType": "string",
          "name": "_name",
          "type": "string"
        },
        {
          "internalType": "string",
          "name": "_image",
          "type": "string"
        },
        {
          "internalType": "string",
          "name": "_ipfs",
          "type": "string"
        }
      ],
      "name": "voterRight",
      "outputs": [],
      "stateMutability": "nonpayable",
      "type": "function"
    },
    {
      "inputs": [
        {
          "internalType": "address",
          "name": "",
          "type": "address"
        }
      ],
      "name": "voters",
      "outputs": [
        {
          "internalType": "uint256",
          "name": "voter_voterId",
          "type": "uint256"
        },
        {
          "internalType": "string",
          "name": "voter_name",
          "type": "string"
        },
        {
          "internalType": "string",
          "name": "voter_image",
          "type": "string"
        },
        {
          "internalType": "address",
          "name": "voter_address",
          "type": "address"
        },
        {
          "internalType": "uint256",
          "name": "voter_allowed",
          "type": "uint256"
        },
        {
          "internalType": "bool",
          "name": "voter_voted",
          "type": "bool"
        },
        {
          "internalType": "uint256",
          "name": "voter_vote",
          "type": "uint256"
        },
        {
          "internalType": "string",
          "name": "voter_ipfs",
          "type": "string"
        },
        {
          "internalType": "bool",
          "name": "is_candidate",
          "type": "bool"
        }
      ],
      "stateMutability": "view",
      "type": "function"
    },
    {
      "inputs": [
        {
          "internalType": "uint256",
          "name": "",
          "type": "uint256"
        }
      ],
      "name": "votersAddress",
      "outputs": [
        {
          "internalType": "address",
          "name": "",
          "type": "address"
        }
      ],
      "stateMutability": "view",
      "type": "function"
    },
    {
      "inputs": [],
      "name": "votingEnded",
      "outputs": [
        {
          "internalType": "bool",
          "name": "",
          "type": "bool"
        }
      ],
      "stateMutability": "view",
      "type": "function"
    },
    {
      "inputs": [],
      "name": "votingOrganizer",
      "outputs": [
        {
          "internalType": "address",
          "name": "",
          "type": "address"
        }
      ],
      "stateMutability": "view",
      "type": "function"
    },
    {
      "inputs": [],
      "name": "winnerAddress",
      "outputs": [
        {
          "internalType": "address",
          "name": "",
          "type": "address"
        }
      ],
      "stateMutability": "view",
      "type": "function"
    }
  ],
  "bytecode": "0x608060405234801561001057600080fd5b5033600260006101000a81548173ffffffffffffffffffffffffffffffffffffffff021916908373ffffffffffffffffffffffffffffffffffffffff160217905550612fb4806100616000396000f3fe608060405234801561001057600080fd5b50600436106101585760003560e01c80638e7ea5b2116100c3578063b28d92ae1161007c578063b28d92ae1461040e578063b9be31521461042c578063c857ecbe1461044a578063c91ec71214610468578063ed7a4e0b14610484578063f7522a83146104a257610158565b80638e7ea5b2146103275780638fb4cd801461034557806397d41b351461037c5780639d5a05291461039a578063a3ec138d146103b8578063a7388967146103f057610158565b806352c6ca821161011557806352c6ca821461024b5780635cc48aa7146102695780635f74bbde1461028757806370218b85146102a35780637831ffb3146102c15780638ab66a90146102f157610158565b80630361419e1461015d57806305ad45a41461017957806313182dce146101975780632a466ac7146101b55780633a88251a146101eb57806343242daa1461021b575b600080fd5b610177600480360381019061017291906120fa565b6104c0565b005b61018161076f565b60405161018e91906121ce565b60405180910390f35b61019f61077c565b6040516101ac91906122a7565b60405180910390f35b6101cf60048036038101906101ca91906122c9565b61080a565b6040516101e29796959493929190612384565b60405180910390f35b6102056004803603810190610200919061243b565b610c51565b6040516102129190612468565b60405180910390f35b6102356004803603810190610230919061243b565b610c90565b6040516102429190612468565b60405180910390f35b610253610ccf565b6040516102609190612468565b60405180910390f35b610271610cf9565b60405161027e9190612468565b60405180910390f35b6102a1600480360381019061029c9190612483565b610d1f565b005b6102ab610ee6565b6040516102b891906122a7565b60405180910390f35b6102db60048036038101906102d6919061243b565b610f74565b6040516102e89190612468565b60405180910390f35b61030b600480360381019061030691906122c9565b610fb3565b60405161031e97969594939291906124c3565b60405180910390f35b61032f611235565b60405161033c9190612468565b60405180910390f35b61035f600480360381019061035a91906122c9565b611471565b604051610373989796959493929190612569565b60405180910390f35b610384611772565b6040516103919190612468565b60405180910390f35b6103a261179c565b6040516103af91906125fc565b60405180910390f35b6103d260048036038101906103cd91906122c9565b6117af565b6040516103e799989796959493929190612617565b60405180910390f35b6103f86119cf565b60405161040591906121ce565b60405180910390f35b6104166119db565b60405161042391906122a7565b60405180910390f35b610434611a69565b60405161044191906121ce565b60405180910390f35b610452611a75565b60405161045f91906125fc565b60405180910390f35b610482600480360381019061047d91906126b9565b611a8c565b005b61048c611eeb565b6040516104999190612468565b60405180910390f35b6104aa611f11565b6040516104b791906121ce565b60405180910390f35b3373ffffffffffffffffffffffffffffffffffffffff16600260009054906101000a900473ffffffffffffffffffffffffffffffffffffffff1673ffffffffffffffffffffffffffffffffffffffff1614610550576040517f08c379a000000000000000000000000000000000000000000000000000000000815260040161054790612816565b60405180910390fd5b61055a6000611f1e565b60006105666000611f34565b90506000600860008773ffffffffffffffffffffffffffffffffffffffff1673ffffffffffffffffffffffffffffffffffffffff168152602001908152602001600020905060008160040154146105bc57600080fd5b60018160040181905550848160010190816105d79190612a42565b50838160020190816105e99190612a42565b50858160030160006101000a81548173ffffffffffffffffffffffffffffffffffffffff021916908373ffffffffffffffffffffffffffffffffffffffff1602179055508181600001819055506103e8816006018190555060008160050160006101000a81548160ff0219169083151502179055508281600701908161066f9190612a42565b5060008160080160006101000a81548160ff0219169083151502179055506007869080600181540180825580915050600190039060005260206000200160009091909190916101000a81548173ffffffffffffffffffffffffffffffffffffffff021916908373ffffffffffffffffffffffffffffffffffffffff16021790555080600001547f4b9faa797a1a89819834183ca6d9deac77c04d32f904f363bbdcb533d5b0ac7d86868985600401548660050160009054906101000a900460ff168760060154886007018960080160009054906101000a900460ff1660405161075f989796959493929190612b98565b60405180910390a2505050505050565b6000600780549050905090565b6060600680548060200260200160405190810160405280929190818152602001828054801561080057602002820191906000526020600020905b8160009054906101000a900473ffffffffffffffffffffffffffffffffffffffff1673ffffffffffffffffffffffffffffffffffffffff16815260200190600101908083116107b6575b5050505050905090565b60608060006060600060606000600560008973ffffffffffffffffffffffffffffffffffffffff1673ffffffffffffffffffffffffffffffffffffffff168152602001908152602001600020600101600560008a73ffffffffffffffffffffffffffffffffffffffff1673ffffffffffffffffffffffffffffffffffffffff168152602001908152602001600020600201600560008b73ffffffffffffffffffffffffffffffffffffffff1673ffffffffffffffffffffffffffffffffffffffff16815260200190815260200160002060000154600560008c73ffffffffffffffffffffffffffffffffffffffff1673ffffffffffffffffffffffffffffffffffffffff168152602001908152602001600020600301600560008d73ffffffffffffffffffffffffffffffffffffffff1673ffffffffffffffffffffffffffffffffffffffff16815260200190815260200160002060040154600560008e73ffffffffffffffffffffffffffffffffffffffff1673ffffffffffffffffffffffffffffffffffffffff168152602001908152602001600020600601600560008f73ffffffffffffffffffffffffffffffffffffffff1673ffffffffffffffffffffffffffffffffffffffff16815260200190815260200160002060050160009054906101000a900473ffffffffffffffffffffffffffffffffffffffff16868054610a1490612865565b80601f0160208091040260200160405190810160405280929190818152602001828054610a4090612865565b8015610a8d5780601f10610a6257610100808354040283529160200191610a8d565b820191906000526020600020905b815481529060010190602001808311610a7057829003601f168201915b50505050509650858054610aa090612865565b80601f0160208091040260200160405190810160405280929190818152602001828054610acc90612865565b8015610b195780601f10610aee57610100808354040283529160200191610b19565b820191906000526020600020905b815481529060010190602001808311610afc57829003601f168201915b50505050509550838054610b2c90612865565b80601f0160208091040260200160405190810160405280929190818152602001828054610b5890612865565b8015610ba55780601f10610b7a57610100808354040283529160200191610ba5565b820191906000526020600020905b815481529060010190602001808311610b8857829003601f168201915b50505050509350818054610bb890612865565b80601f0160208091040260200160405190810160405280929190818152602001828054610be490612865565b8015610c315780601f10610c0657610100808354040283529160200191610c31565b820191906000526020600020905b815481529060010190602001808311610c1457829003601f168201915b505050505091509650965096509650965096509650919395979092949650565b60048181548110610c6157600080fd5b906000526020600020016000915054906101000a900473ffffffffffffffffffffffffffffffffffffffff1681565b60078181548110610ca057600080fd5b906000526020600020016000915054906101000a900473ffffffffffffffffffffffffffffffffffffffff1681565b6000600360009054906101000a900473ffffffffffffffffffffffffffffffffffffffff16905090565b600260009054906101000a900473ffffffffffffffffffffffffffffffffffffffff1681565b6000600860003373ffffffffffffffffffffffffffffffffffffffff1673ffffffffffffffffffffffffffffffffffffffff16815260200190815260200160002090508060050160009054906101000a900460ff1615610db4576040517f08c379a0000000000000000000000000000000000000000000000000000000008152600401610dab90612c77565b60405180910390fd5b6000816004015403610dfb576040517f08c379a0000000000000000000000000000000000000000000000000000000008152600401610df290612ce3565b60405180910390fd5b60018160050160006101000a81548160ff0219169083151502179055508181600601819055506006339080600181540180825580915050600190039060005260206000200160009091909190916101000a81548173ffffffffffffffffffffffffffffffffffffffff021916908373ffffffffffffffffffffffffffffffffffffffff1602179055508060040154600560008573ffffffffffffffffffffffffffffffffffffffff1673ffffffffffffffffffffffffffffffffffffffff1681526020019081526020016000206004016000828254610eda9190612d32565b92505081905550505050565b60606004805480602002602001604051908101604052809291908181526020018280548015610f6a57602002820191906000526020600020905b8160009054906101000a900473ffffffffffffffffffffffffffffffffffffffff1673ffffffffffffffffffffffffffffffffffffffff1681526020019060010190808311610f20575b5050505050905090565b60068181548110610f8457600080fd5b906000526020600020016000915054906101000a900473ffffffffffffffffffffffffffffffffffffffff1681565b6005602052806000526040600020600091509050806000015490806001018054610fdc90612865565b80601f016020809104026020016040519081016040528092919081815260200182805461100890612865565b80156110555780601f1061102a57610100808354040283529160200191611055565b820191906000526020600020905b81548152906001019060200180831161103857829003601f168201915b50505050509080600201805461106a90612865565b80601f016020809104026020016040519081016040528092919081815260200182805461109690612865565b80156110e35780601f106110b8576101008083540402835291602001916110e3565b820191906000526020600020905b8154815290600101906020018083116110c657829003601f168201915b5050505050908060030180546110f890612865565b80601f016020809104026020016040519081016040528092919081815260200182805461112490612865565b80156111715780601f1061114657610100808354040283529160200191611171565b820191906000526020600020905b81548152906001019060200180831161115457829003601f168201915b5050505050908060040154908060050160009054906101000a900473ffffffffffffffffffffffffffffffffffffffff16908060060180546111b290612865565b80601f01602080910402602001604051908101604052809291908181526020018280546111de90612865565b801561122b5780601f106112005761010080835404028352916020019161122b565b820191906000526020600020905b81548152906001019060200180831161120e57829003601f168201915b5050505050905087565b600080600090506000600190503373ffffffffffffffffffffffffffffffffffffffff16600260009054906101000a900473ffffffffffffffffffffffffffffffffffffffff1673ffffffffffffffffffffffffffffffffffffffff16146112d2576040517f08c379a00000000000000000000000000000000000000000000000000000000081526004016112c990612dd8565b60405180910390fd5b6001600260146101000a81548160ff02191690831515021790555060005b6004805490508110156113fe5760006004828154811061131357611312612df8565b5b9060005260206000200160009054906101000a900473ffffffffffffffffffffffffffffffffffffffff1690506000600560008373ffffffffffffffffffffffffffffffffffffffff1673ffffffffffffffffffffffffffffffffffffffff168152602001908152602001600020600401549050848111156113dc5780945081600360006101000a81548173ffffffffffffffffffffffffffffffffffffffff021916908373ffffffffffffffffffffffffffffffffffffffff160217905550600193506113e9565b8481036113e857600093505b5b505080806113f690612e27565b9150506112f0565b5080611447576000600360006101000a81548173ffffffffffffffffffffffffffffffffffffffff021916908373ffffffffffffffffffffffffffffffffffffffff1602179055505b600360009054906101000a900473ffffffffffffffffffffffffffffffffffffffff169250505090565b600060608060006060600080600080600860008b73ffffffffffffffffffffffffffffffffffffffff1673ffffffffffffffffffffffffffffffffffffffff16815260200190815260200160002060405180610120016040529081600082015481526020016001820180546114e590612865565b80601f016020809104026020016040519081016040528092919081815260200182805461151190612865565b801561155e5780601f106115335761010080835404028352916020019161155e565b820191906000526020600020905b81548152906001019060200180831161154157829003601f168201915b5050505050815260200160028201805461157790612865565b80601f01602080910402602001604051908101604052809291908181526020018280546115a390612865565b80156115f05780601f106115c5576101008083540402835291602001916115f0565b820191906000526020600020905b8154815290600101906020018083116115d357829003601f168201915b505050505081526020016003820160009054906101000a900473ffffffffffffffffffffffffffffffffffffffff1673ffffffffffffffffffffffffffffffffffffffff1673ffffffffffffffffffffffffffffffffffffffff168152602001600482015481526020016005820160009054906101000a900460ff161515151581526020016006820154815260200160078201805461168e90612865565b80601f01602080910402602001604051908101604052809291908181526020018280546116ba90612865565b80156117075780601f106116dc57610100808354040283529160200191611707565b820191906000526020600020905b8154815290600101906020018083116116ea57829003601f168201915b505050505081526020016008820160009054906101000a900460ff1615151515815250509050806000015181602001518260e001518360600151846040015185608001518660a001518761010001519850985098509850985098509850985050919395975091939597565b6000600260009054906101000a900473ffffffffffffffffffffffffffffffffffffffff16905090565b600260149054906101000a900460ff1681565b60086020528060005260406000206000915090508060000154908060010180546117d890612865565b80601f016020809104026020016040519081016040528092919081815260200182805461180490612865565b80156118515780601f1061182657610100808354040283529160200191611851565b820191906000526020600020905b81548152906001019060200180831161183457829003601f168201915b50505050509080600201805461186690612865565b80601f016020809104026020016040519081016040528092919081815260200182805461189290612865565b80156118df5780601f106118b4576101008083540402835291602001916118df565b820191906000526020600020905b8154815290600101906020018083116118c257829003601f168201915b5050505050908060030160009054906101000a900473ffffffffffffffffffffffffffffffffffffffff16908060040154908060050160009054906101000a900460ff169080600601549080600701805461193990612865565b80601f016020809104026020016040519081016040528092919081815260200182805461196590612865565b80156119b25780601f10611987576101008083540402835291602001916119b2565b820191906000526020600020905b81548152906001019060200180831161199557829003601f168201915b5050505050908060080160009054906101000a900460ff16905089565b60018060000154905081565b60606007805480602002602001604051908101604052809291908181526020018280548015611a5f57602002820191906000526020600020905b8160009054906101000a900473ffffffffffffffffffffffffffffffffffffffff1673ffffffffffffffffffffffffffffffffffffffff1681526020019060010190808311611a15575b5050505050905090565b60008060000154905081565b6000600260149054906101000a900460ff16905090565b3373ffffffffffffffffffffffffffffffffffffffff16600260009054906101000a900473ffffffffffffffffffffffffffffffffffffffff1673ffffffffffffffffffffffffffffffffffffffff1614611b1c576040517f08c379a0000000000000000000000000000000000000000000000000000000008152600401611b1390612ee1565b60405180910390fd5b611b266001611f1e565b6000611b326001611f34565b90506000600560008873ffffffffffffffffffffffffffffffffffffffff1673ffffffffffffffffffffffffffffffffffffffff168152602001908152602001600020905085816001019081611b889190612a42565b5084816002019081611b9a9190612a42565b5081816000018190555083816003019081611bb59190612a42565b5060008160040181905550868160050160006101000a81548173ffffffffffffffffffffffffffffffffffffffff021916908373ffffffffffffffffffffffffffffffffffffffff16021790555082816006019081611c149190612a42565b506004879080600181540180825580915050600190039060005260206000200160009091909190916101000a81548173ffffffffffffffffffffffffffffffffffffffff021916908373ffffffffffffffffffffffffffffffffffffffff16021790555080600001547fd297f12b256bb8485a6013fb5e302017018123e99a0ebb20756c09e1707b4b9087878785600401548660050160009054906101000a900473ffffffffffffffffffffffffffffffffffffffff1687600601604051611ce196959493929190612f01565b60405180910390a2611cf36000611f1e565b6000600860008973ffffffffffffffffffffffffffffffffffffffff1673ffffffffffffffffffffffffffffffffffffffff16815260200190815260200160002090506001816004018190555085816001019081611d519190612a42565b5084816002019081611d639190612a42565b50878160030160006101000a81548173ffffffffffffffffffffffffffffffffffffffff021916908373ffffffffffffffffffffffffffffffffffffffff1602179055508281600001819055506103e8816006018190555060008160050160006101000a81548160ff02191690831515021790555083816007019081611de99190612a42565b5060018160080160006101000a81548160ff0219169083151502179055506007889080600181540180825580915050600190039060005260206000200160009091909190916101000a81548173ffffffffffffffffffffffffffffffffffffffff021916908373ffffffffffffffffffffffffffffffffffffffff16021790555080600001547f4b9faa797a1a89819834183ca6d9deac77c04d32f904f363bbdcb533d5b0ac7d87878b85600401548660050160009054906101000a900460ff168760060154886007018960080160009054906101000a900460ff16604051611ed9989796959493929190612b98565b60405180910390a25050505050505050565b600360009054906101000a900473ffffffffffffffffffffffffffffffffffffffff1681565b6000600480549050905090565b6001816000016000828254019250508190555050565b600081600001549050919050565b6000604051905090565b600080fd5b600080fd5b600073ffffffffffffffffffffffffffffffffffffffff82169050919050565b6000611f8182611f56565b9050919050565b611f9181611f76565b8114611f9c57600080fd5b50565b600081359050611fae81611f88565b92915050565b600080fd5b600080fd5b6000601f19601f8301169050919050565b7f4e487b7100000000000000000000000000000000000000000000000000000000600052604160045260246000fd5b61200782611fbe565b810181811067ffffffffffffffff8211171561202657612025611fcf565b5b80604052505050565b6000612039611f42565b90506120458282611ffe565b919050565b600067ffffffffffffffff82111561206557612064611fcf565b5b61206e82611fbe565b9050602081019050919050565b82818337600083830152505050565b600061209d6120988461204a565b61202f565b9050828152602081018484840111156120b9576120b8611fb9565b5b6120c484828561207b565b509392505050565b600082601f8301126120e1576120e0611fb4565b5b81356120f184826020860161208a565b91505092915050565b6000806000806080858703121561211457612113611f4c565b5b600061212287828801611f9f565b945050602085013567ffffffffffffffff81111561214357612142611f51565b5b61214f878288016120cc565b935050604085013567ffffffffffffffff8111156121705761216f611f51565b5b61217c878288016120cc565b925050606085013567ffffffffffffffff81111561219d5761219c611f51565b5b6121a9878288016120cc565b91505092959194509250565b6000819050919050565b6121c8816121b5565b82525050565b60006020820190506121e360008301846121bf565b92915050565b600081519050919050565b600082825260208201905092915050565b6000819050602082019050919050565b61221e81611f76565b82525050565b60006122308383612215565b60208301905092915050565b6000602082019050919050565b6000612254826121e9565b61225e81856121f4565b935061226983612205565b8060005b8381101561229a5781516122818882612224565b975061228c8361223c565b92505060018101905061226d565b5085935050505092915050565b600060208201905081810360008301526122c18184612249565b905092915050565b6000602082840312156122df576122de611f4c565b5b60006122ed84828501611f9f565b91505092915050565b600081519050919050565b600082825260208201905092915050565b60005b83811015612330578082015181840152602081019050612315565b60008484015250505050565b6000612347826122f6565b6123518185612301565b9350612361818560208601612312565b61236a81611fbe565b840191505092915050565b61237e81611f76565b82525050565b600060e082019050818103600083015261239e818a61233c565b905081810360208301526123b2818961233c565b90506123c160408301886121bf565b81810360608301526123d3818761233c565b90506123e260808301866121bf565b81810360a08301526123f4818561233c565b905061240360c0830184612375565b98975050505050505050565b612418816121b5565b811461242357600080fd5b50565b6000813590506124358161240f565b92915050565b60006020828403121561245157612450611f4c565b5b600061245f84828501612426565b91505092915050565b600060208201905061247d6000830184612375565b92915050565b6000806040838503121561249a57612499611f4c565b5b60006124a885828601611f9f565b92505060206124b985828601612426565b9150509250929050565b600060e0820190506124d8600083018a6121bf565b81810360208301526124ea818961233c565b905081810360408301526124fe818861233c565b90508181036060830152612512818761233c565b905061252160808301866121bf565b61252e60a0830185612375565b81810360c0830152612540818461233c565b905098975050505050505050565b60008115159050919050565b6125638161254e565b82525050565b60006101008201905061257f600083018b6121bf565b8181036020830152612591818a61233c565b905081810360408301526125a5818961233c565b90506125b46060830188612375565b81810360808301526125c6818761233c565b90506125d560a08301866121bf565b6125e260c083018561255a565b6125ef60e083018461255a565b9998505050505050505050565b6000602082019050612611600083018461255a565b92915050565b60006101208201905061262d600083018c6121bf565b818103602083015261263f818b61233c565b90508181036040830152612653818a61233c565b90506126626060830189612375565b61266f60808301886121bf565b61267c60a083018761255a565b61268960c08301866121bf565b81810360e083015261269b818561233c565b90506126ab61010083018461255a565b9a9950505050505050505050565b600080600080600060a086880312156126d5576126d4611f4c565b5b60006126e388828901611f9f565b955050602086013567ffffffffffffffff81111561270457612703611f51565b5b612710888289016120cc565b945050604086013567ffffffffffffffff81111561273157612730611f51565b5b61273d888289016120cc565b935050606086013567ffffffffffffffff81111561275e5761275d611f51565b5b61276a888289016120cc565b925050608086013567ffffffffffffffff81111561278b5761278a611f51565b5b612797888289016120cc565b9150509295509295909350565b7f596f752068617665206e6f20726967687420746f2070726f766964652061757460008201527f686f72697a6174696f6e20666f7220766f746500000000000000000000000000602082015250565b6000612800603383612301565b915061280b826127a4565b604082019050919050565b6000602082019050818103600083015261282f816127f3565b9050919050565b7f4e487b7100000000000000000000000000000000000000000000000000000000600052602260045260246000fd5b6000600282049050600182168061287d57607f821691505b6020821081036128905761288f612836565b5b50919050565b60008190508160005260206000209050919050565b60006020601f8301049050919050565b600082821b905092915050565b6000600883026128f87fffffffffffffffffffffffffffffffffffffffffffffffffffffffffffffffff826128bb565b61290286836128bb565b95508019841693508086168417925050509392505050565b6000819050919050565b600061293f61293a612935846121b5565b61291a565b6121b5565b9050919050565b6000819050919050565b61295983612924565b61296d61296582612946565b8484546128c8565b825550505050565b600090565b612982612975565b61298d818484612950565b505050565b5b818110156129b1576129a660008261297a565b600181019050612993565b5050565b601f8211156129f6576129c781612896565b6129d0846128ab565b810160208510156129df578190505b6129f36129eb856128ab565b830182612992565b50505b505050565b600082821c905092915050565b6000612a19600019846008026129fb565b1980831691505092915050565b6000612a328383612a08565b9150826002028217905092915050565b612a4b826122f6565b67ffffffffffffffff811115612a6457612a63611fcf565b5b612a6e8254612865565b612a798282856129b5565b600060209050601f831160018114612aac5760008415612a9a578287015190505b612aa48582612a26565b865550612b0c565b601f198416612aba86612896565b60005b82811015612ae257848901518255600182019150602085019450602081019050612abd565b86831015612aff5784890151612afb601f891682612a08565b8355505b6001600288020188555050505b505050505050565b60008154612b2181612865565b612b2b8186612301565b94506001821660008114612b465760018114612b5c57612b8f565b60ff198316865281151560200286019350612b8f565b612b6585612896565b60005b83811015612b8757815481890152600182019150602081019050612b68565b808801955050505b50505092915050565b6000610100820190508181036000830152612bb3818b61233c565b90508181036020830152612bc7818a61233c565b9050612bd66040830189612375565b612be360608301886121bf565b612bf0608083018761255a565b612bfd60a08301866121bf565b81810360c0830152612c0f8185612b14565b9050612c1e60e083018461255a565b9998505050505050505050565b7f596f75206861766520616c726561647920766f74656400000000000000000000600082015250565b6000612c61601683612301565b9150612c6c82612c2b565b602082019050919050565b60006020820190508181036000830152612c9081612c54565b9050919050565b7f596f752068617665206e6f20726967687420746f20766f746500000000000000600082015250565b6000612ccd601983612301565b9150612cd882612c97565b602082019050919050565b60006020820190508181036000830152612cfc81612cc0565b9050919050565b7f4e487b7100000000000000000000000000000000000000000000000000000000600052601160045260246000fd5b6000612d3d826121b5565b9150612d48836121b5565b9250828201905080821115612d6057612d5f612d03565b5b92915050565b7f4f6e6c79206f7267616e697a65722063616e20676574207468652077696e6e6560008201527f7200000000000000000000000000000000000000000000000000000000000000602082015250565b6000612dc2602183612301565b9150612dcd82612d66565b604082019050919050565b60006020820190508181036000830152612df181612db5565b9050919050565b7f4e487b7100000000000000000000000000000000000000000000000000000000600052603260045260246000fd5b6000612e32826121b5565b91507fffffffffffffffffffffffffffffffffffffffffffffffffffffffffffffffff8203612e6457612e63612d03565b5b600182019050919050565b7f596f752068617665206e6f20617574686f72697a6174696f6e20746f2073657460008201527f2043616e64696461746500000000000000000000000000000000000000000000602082015250565b6000612ecb602a83612301565b9150612ed682612e6f565b604082019050919050565b60006020820190508181036000830152612efa81612ebe565b9050919050565b600060c0820190508181036000830152612f1b818961233c565b90508181036020830152612f2f818861233c565b90508181036040830152612f43818761233c565b9050612f5260608301866121bf565b612f5f6080830185612375565b81810360a0830152612f718184612b14565b905097965050505050505056fea2646970667358221220776993ebf865d5730a463d7d961b4df991b24920258c7e36fadec40b0b478a1b64736f6c63430008120033",
  "linkReferences": {},
  "deployedLinkReferences": {}
}