{
  "_format": "hh-sol-artifact-1",
  "contractName": "Create",
  "sourceName": "contracts/VotingContract.sol",
  "abi": [
    {
      "inputs": [],
      "stateMutability": "nonpayable",
      "type": "constructor"
    },
    {
      "anonymous": false,
      "inputs": [
        {
          "indexed": true,
          "internalType": "uint256",
          "name": "candidateId",
          "type": "uint256"
        },
        {
          "indexed": false,
          "internalType": "string",
          "name": "age",
          "type": "string"
        },
        {
          "indexed": false,
          "internalType": "string",
          "name": "name",
          "type": "string"
        },
        {
          "indexed": false,
          "internalType": "string",
          "name": "image",
          "type": "string"
        },
        {
          "indexed": false,
          "internalType": "uint256",
          "name": "voteCount",
          "type": "uint256"
        },
        {
          "indexed": false,
          "internalType": "address",
          "name": "_address",
          "type": "address"
        },
        {
          "indexed": false,
          "internalType": "string",
          "name": "ipfs",
          "type": "string"
        }
      ],
      "name": "CandidateCreate",
      "type": "event"
    },
    {
      "anonymous": false,
      "inputs": [
        {
          "indexed": true,
          "internalType": "uint256",
          "name": "voter_voterId",
          "type": "uint256"
        },
        {
          "indexed": false,
          "internalType": "string",
          "name": "voter_name",
          "type": "string"
        },
        {
          "indexed": false,
          "internalType": "string",
          "name": "voter_image",
          "type": "string"
        },
        {
          "indexed": false,
          "internalType": "address",
          "name": "voter_address",
          "type": "address"
        },
        {
          "indexed": false,
          "internalType": "uint256",
          "name": "voter_allowed",
          "type": "uint256"
        },
        {
          "indexed": false,
          "internalType": "bool",
          "name": "voter_voted",
          "type": "bool"
        },
        {
          "indexed": false,
          "internalType": "uint256",
          "name": "voter_vote",
          "type": "uint256"
        },
        {
          "indexed": false,
          "internalType": "string",
          "name": "voter_ipfs",
          "type": "string"
        }
      ],
      "name": "VoterCreated",
      "type": "event"
    },
    {
      "inputs": [],
      "name": "_candidateId",
      "outputs": [
        {
          "internalType": "uint256",
          "name": "_value",
          "type": "uint256"
        }
      ],
      "stateMutability": "view",
      "type": "function"
    },
    {
      "inputs": [],
      "name": "_voterId",
      "outputs": [
        {
          "internalType": "uint256",
          "name": "_value",
          "type": "uint256"
        }
      ],
      "stateMutability": "view",
      "type": "function"
    },
    {
      "inputs": [
        {
          "internalType": "uint256",
          "name": "",
          "type": "uint256"
        }
      ],
      "name": "candidateAddress",
      "outputs": [
        {
          "internalType": "address",
          "name": "",
          "type": "address"
        }
      ],
      "stateMutability": "view",
      "type": "function"
    },
    {
      "inputs": [
        {
          "internalType": "address",
          "name": "",
          "type": "address"
        }
      ],
      "name": "candidates",
      "outputs": [
        {
          "internalType": "uint256",
          "name": "candidateId",
          "type": "uint256"
        },
        {
          "internalType": "string",
          "name": "age",
          "type": "string"
        },
        {
          "internalType": "string",
          "name": "name",
          "type": "string"
        },
        {
          "internalType": "string",
          "name": "image",
          "type": "string"
        },
        {
          "internalType": "uint256",
          "name": "voteCount",
          "type": "uint256"
        },
        {
          "internalType": "address",
          "name": "_address",
          "type": "address"
        },
        {
          "internalType": "string",
          "name": "ipfs",
          "type": "string"
        }
      ],
      "stateMutability": "view",
      "type": "function"
    },
    {
      "inputs": [],
      "name": "getCandidate",
      "outputs": [
        {
          "internalType": "address[]",
          "name": "",
          "type": "address[]"
        }
      ],
      "stateMutability": "view",
      "type": "function"
    },
    {
      "inputs": [
        {
          "internalType": "address",
          "name": "_address",
          "type": "address"
        }
      ],
      "name": "getCandidateData",
      "outputs": [
        {
          "internalType": "string",
          "name": "",
          "type": "string"
        },
        {
          "internalType": "string",
          "name": "",
          "type": "string"
        },
        {
          "internalType": "uint256",
          "name": "",
          "type": "uint256"
        },
        {
          "internalType": "string",
          "name": "",
          "type": "string"
        },
        {
          "internalType": "uint256",
          "name": "",
          "type": "uint256"
        },
        {
          "internalType": "string",
          "name": "",
          "type": "string"
        },
        {
          "internalType": "address",
          "name": "",
          "type": "address"
        }
      ],
      "stateMutability": "view",
      "type": "function"
    },
    {
      "inputs": [],
      "name": "getCandidateLength",
      "outputs": [
        {
          "internalType": "uint256",
          "name": "",
          "type": "uint256"
        }
      ],
      "stateMutability": "view",
      "type": "function"
    },
    {
      "inputs": [],
      "name": "getVotedVotersList",
      "outputs": [
        {
          "internalType": "address[]",
          "name": "",
          "type": "address[]"
        }
      ],
      "stateMutability": "view",
      "type": "function"
    },
    {
      "inputs": [
        {
          "internalType": "address",
          "name": "_address",
          "type": "address"
        }
      ],
      "name": "getVoterData",
      "outputs": [
        {
          "internalType": "uint256",
          "name": "",
          "type": "uint256"
        },
        {
          "internalType": "string",
          "name": "",
          "type": "string"
        },
        {
          "internalType": "string",
          "name": "",
          "type": "string"
        },
        {
          "internalType": "address",
          "name": "",
          "type": "address"
        },
        {
          "internalType": "string",
          "name": "",
          "type": "string"
        },
        {
          "internalType": "uint256",
          "name": "",
          "type": "uint256"
        },
        {
          "internalType": "bool",
          "name": "",
          "type": "bool"
        }
      ],
      "stateMutability": "view",
      "type": "function"
    },
    {
      "inputs": [],
      "name": "getVoterLength",
      "outputs": [
        {
          "internalType": "uint256",
          "name": "",
          "type": "uint256"
        }
      ],
      "stateMutability": "view",
      "type": "function"
    },
    {
      "inputs": [],
      "name": "getVoterList",
      "outputs": [
        {
          "internalType": "address[]",
          "name": "",
          "type": "address[]"
        }
      ],
      "stateMutability": "view",
      "type": "function"
    },
    {
      "inputs": [],
      "name": "getWinner",
      "outputs": [
        {
          "internalType": "address",
          "name": "winner",
          "type": "address"
        }
      ],
      "stateMutability": "view",
      "type": "function"
    },
    {
      "inputs": [
        {
          "internalType": "address",
          "name": "_address",
          "type": "address"
        },
        {
          "internalType": "string",
          "name": "_age",
          "type": "string"
        },
        {
          "internalType": "string",
          "name": "_name",
          "type": "string"
        },
        {
          "internalType": "string",
          "name": "_image",
          "type": "string"
        },
        {
          "internalType": "string",
          "name": "_ipfs",
          "type": "string"
        }
      ],
      "name": "setCandidate",
      "outputs": [],
      "stateMutability": "nonpayable",
      "type": "function"
    },
    {
      "inputs": [
        {
          "internalType": "address",
          "name": "_candidateAddress",
          "type": "address"
        },
        {
          "internalType": "uint256",
          "name": "_candidateVoteId",
          "type": "uint256"
        }
      ],
      "name": "vote",
      "outputs": [],
      "stateMutability": "nonpayable",
      "type": "function"
    },
    {
      "inputs": [
        {
          "internalType": "uint256",
          "name": "",
          "type": "uint256"
        }
      ],
      "name": "votedVoters",
      "outputs": [
        {
          "internalType": "address",
          "name": "",
          "type": "address"
        }
      ],
      "stateMutability": "view",
      "type": "function"
    },
    {
      "inputs": [
        {
          "internalType": "address",
          "name": "_address",
          "type": "address"
        },
        {
          "internalType": "string",
          "name": "_name",
          "type": "string"
        },
        {
          "internalType": "string",
          "name": "_image",
          "type": "string"
        },
        {
          "internalType": "string",
          "name": "_ipfs",
          "type": "string"
        }
      ],
      "name": "voterRight",
      "outputs": [],
      "stateMutability": "nonpayable",
      "type": "function"
    },
    {
      "inputs": [
        {
          "internalType": "address",
          "name": "",
          "type": "address"
        }
      ],
      "name": "voters",
      "outputs": [
        {
          "internalType": "uint256",
          "name": "voter_voterId",
          "type": "uint256"
        },
        {
          "internalType": "string",
          "name": "voter_name",
          "type": "string"
        },
        {
          "internalType": "string",
          "name": "voter_image",
          "type": "string"
        },
        {
          "internalType": "address",
          "name": "voter_address",
          "type": "address"
        },
        {
          "internalType": "uint256",
          "name": "voter_allowed",
          "type": "uint256"
        },
        {
          "internalType": "bool",
          "name": "voter_voted",
          "type": "bool"
        },
        {
          "internalType": "uint256",
          "name": "voter_vote",
          "type": "uint256"
        },
        {
          "internalType": "string",
          "name": "voter_ipfs",
          "type": "string"
        }
      ],
      "stateMutability": "view",
      "type": "function"
    },
    {
      "inputs": [
        {
          "internalType": "uint256",
          "name": "",
          "type": "uint256"
        }
      ],
      "name": "votersAddress",
      "outputs": [
        {
          "internalType": "address",
          "name": "",
          "type": "address"
        }
      ],
      "stateMutability": "view",
      "type": "function"
    },
    {
      "inputs": [],
      "name": "votingOrganizer",
      "outputs": [
        {
          "internalType": "address",
          "name": "",
          "type": "address"
        }
      ],
      "stateMutability": "view",
      "type": "function"
    }
  ],
  "bytecode": "0x608060405234801561001057600080fd5b5033600260006101000a81548173ffffffffffffffffffffffffffffffffffffffff021916908373ffffffffffffffffffffffffffffffffffffffff160217905550612ba2806100616000396000f3fe608060405234801561001057600080fd5b50600436106101215760003560e01c80637831ffb3116100ad578063a738896711610071578063a73889671461035d578063b28d92ae1461037b578063b9be315214610399578063c91ec712146103b7578063f7522a83146103d357610121565b80637831ffb31461026c5780638ab66a901461029c5780638e7ea5b2146102d25780638fb4cd80146102f0578063a3ec138d1461032657610121565b80633a88251a116100f45780633a88251a146101b457806343242daa146101e45780635cc48aa7146102145780635f74bbde1461023257806370218b851461024e57610121565b80630361419e1461012657806305ad45a41461014257806313182dce146101605780632a466ac71461017e575b600080fd5b610140600480360381019061013b9190611d30565b6103f1565b005b61014a610670565b6040516101579190611e04565b60405180910390f35b61016861067d565b6040516101759190611edd565b60405180910390f35b61019860048036038101906101939190611eff565b61070b565b6040516101ab9796959493929190611fba565b60405180910390f35b6101ce60048036038101906101c99190612071565b610b52565b6040516101db919061209e565b60405180910390f35b6101fe60048036038101906101f99190612071565b610b91565b60405161020b919061209e565b60405180910390f35b61021c610bd0565b604051610229919061209e565b60405180910390f35b61024c600480360381019061024791906120b9565b610bf6565b005b610256610dbd565b6040516102639190611edd565b60405180910390f35b61028660048036038101906102819190612071565b610e4b565b604051610293919061209e565b60405180910390f35b6102b660048036038101906102b19190611eff565b610e8a565b6040516102c997969594939291906120f9565b60405180910390f35b6102da61110c565b6040516102e7919061209e565b60405180910390f35b61030a60048036038101906103059190611eff565b611266565b60405161031d979695949392919061219f565b60405180910390f35b610340600480360381019061033b9190611eff565b61162e565b604051610354989796959493929190612223565b60405180910390f35b61036561183b565b6040516103729190611e04565b60405180910390f35b610383611847565b6040516103909190611edd565b60405180910390f35b6103a16118d5565b6040516103ae9190611e04565b60405180910390f35b6103d160048036038101906103cc91906122b6565b6118e1565b005b6103db611b47565b6040516103e89190611e04565b60405180910390f35b3373ffffffffffffffffffffffffffffffffffffffff16600260009054906101000a900473ffffffffffffffffffffffffffffffffffffffff1673ffffffffffffffffffffffffffffffffffffffff1614610481576040517f08c379a000000000000000000000000000000000000000000000000000000000815260040161047890612413565b60405180910390fd5b61048b6000611b54565b60006104976000611b6a565b90506000600760008773ffffffffffffffffffffffffffffffffffffffff1673ffffffffffffffffffffffffffffffffffffffff168152602001908152602001600020905060008160040154146104ed57600080fd5b6001816004018190555084816001019081610508919061263f565b508381600201908161051a919061263f565b50858160030160006101000a81548173ffffffffffffffffffffffffffffffffffffffff021916908373ffffffffffffffffffffffffffffffffffffffff1602179055508181600001819055506103e8816006018190555060008160050160006101000a81548160ff021916908315150217905550828160070190816105a0919061263f565b506006869080600181540180825580915050600190039060005260206000200160009091909190916101000a81548173ffffffffffffffffffffffffffffffffffffffff021916908373ffffffffffffffffffffffffffffffffffffffff16021790555080600001547ff5f39971dd62d9929e3a9feaa6bb77fe7c7da0001babff8a65a7e51ad0201c1986868985600401548660050160009054906101000a900460ff168760060154886007016040516106609796959493929190612795565b60405180910390a2505050505050565b6000600680549050905090565b6060600580548060200260200160405190810160405280929190818152602001828054801561070157602002820191906000526020600020905b8160009054906101000a900473ffffffffffffffffffffffffffffffffffffffff1673ffffffffffffffffffffffffffffffffffffffff16815260200190600101908083116106b7575b5050505050905090565b60608060006060600060606000600460008973ffffffffffffffffffffffffffffffffffffffff1673ffffffffffffffffffffffffffffffffffffffff168152602001908152602001600020600101600460008a73ffffffffffffffffffffffffffffffffffffffff1673ffffffffffffffffffffffffffffffffffffffff168152602001908152602001600020600201600460008b73ffffffffffffffffffffffffffffffffffffffff1673ffffffffffffffffffffffffffffffffffffffff16815260200190815260200160002060000154600460008c73ffffffffffffffffffffffffffffffffffffffff1673ffffffffffffffffffffffffffffffffffffffff168152602001908152602001600020600301600460008d73ffffffffffffffffffffffffffffffffffffffff1673ffffffffffffffffffffffffffffffffffffffff16815260200190815260200160002060040154600460008e73ffffffffffffffffffffffffffffffffffffffff1673ffffffffffffffffffffffffffffffffffffffff168152602001908152602001600020600601600460008f73ffffffffffffffffffffffffffffffffffffffff1673ffffffffffffffffffffffffffffffffffffffff16815260200190815260200160002060050160009054906101000a900473ffffffffffffffffffffffffffffffffffffffff1686805461091590612462565b80601f016020809104026020016040519081016040528092919081815260200182805461094190612462565b801561098e5780601f106109635761010080835404028352916020019161098e565b820191906000526020600020905b81548152906001019060200180831161097157829003601f168201915b505050505096508580546109a190612462565b80601f01602080910402602001604051908101604052809291908181526020018280546109cd90612462565b8015610a1a5780601f106109ef57610100808354040283529160200191610a1a565b820191906000526020600020905b8154815290600101906020018083116109fd57829003601f168201915b50505050509550838054610a2d90612462565b80601f0160208091040260200160405190810160405280929190818152602001828054610a5990612462565b8015610aa65780601f10610a7b57610100808354040283529160200191610aa6565b820191906000526020600020905b815481529060010190602001808311610a8957829003601f168201915b50505050509350818054610ab990612462565b80601f0160208091040260200160405190810160405280929190818152602001828054610ae590612462565b8015610b325780601f10610b0757610100808354040283529160200191610b32565b820191906000526020600020905b815481529060010190602001808311610b1557829003601f168201915b505050505091509650965096509650965096509650919395979092949650565b60038181548110610b6257600080fd5b906000526020600020016000915054906101000a900473ffffffffffffffffffffffffffffffffffffffff1681565b60068181548110610ba157600080fd5b906000526020600020016000915054906101000a900473ffffffffffffffffffffffffffffffffffffffff1681565b600260009054906101000a900473ffffffffffffffffffffffffffffffffffffffff1681565b6000600760003373ffffffffffffffffffffffffffffffffffffffff1673ffffffffffffffffffffffffffffffffffffffff16815260200190815260200160002090508060050160009054906101000a900460ff1615610c8b576040517f08c379a0000000000000000000000000000000000000000000000000000000008152600401610c8290612865565b60405180910390fd5b6000816004015403610cd2576040517f08c379a0000000000000000000000000000000000000000000000000000000008152600401610cc9906128d1565b60405180910390fd5b60018160050160006101000a81548160ff0219169083151502179055508181600601819055506005339080600181540180825580915050600190039060005260206000200160009091909190916101000a81548173ffffffffffffffffffffffffffffffffffffffff021916908373ffffffffffffffffffffffffffffffffffffffff1602179055508060040154600460008573ffffffffffffffffffffffffffffffffffffffff1673ffffffffffffffffffffffffffffffffffffffff1681526020019081526020016000206004016000828254610db19190612920565b92505081905550505050565b60606003805480602002602001604051908101604052809291908181526020018280548015610e4157602002820191906000526020600020905b8160009054906101000a900473ffffffffffffffffffffffffffffffffffffffff1673ffffffffffffffffffffffffffffffffffffffff1681526020019060010190808311610df7575b5050505050905090565b60058181548110610e5b57600080fd5b906000526020600020016000915054906101000a900473ffffffffffffffffffffffffffffffffffffffff1681565b6004602052806000526040600020600091509050806000015490806001018054610eb390612462565b80601f0160208091040260200160405190810160405280929190818152602001828054610edf90612462565b8015610f2c5780601f10610f0157610100808354040283529160200191610f2c565b820191906000526020600020905b815481529060010190602001808311610f0f57829003601f168201915b505050505090806002018054610f4190612462565b80601f0160208091040260200160405190810160405280929190818152602001828054610f6d90612462565b8015610fba5780601f10610f8f57610100808354040283529160200191610fba565b820191906000526020600020905b815481529060010190602001808311610f9d57829003601f168201915b505050505090806003018054610fcf90612462565b80601f0160208091040260200160405190810160405280929190818152602001828054610ffb90612462565b80156110485780601f1061101d57610100808354040283529160200191611048565b820191906000526020600020905b81548152906001019060200180831161102b57829003601f168201915b5050505050908060040154908060050160009054906101000a900473ffffffffffffffffffffffffffffffffffffffff169080600601805461108990612462565b80601f01602080910402602001604051908101604052809291908181526020018280546110b590612462565b80156111025780601f106110d757610100808354040283529160200191611102565b820191906000526020600020905b8154815290600101906020018083116110e557829003601f168201915b5050505050905087565b600080600090503373ffffffffffffffffffffffffffffffffffffffff16600260009054906101000a900473ffffffffffffffffffffffffffffffffffffffff1673ffffffffffffffffffffffffffffffffffffffff16146111a3576040517f08c379a000000000000000000000000000000000000000000000000000000000815260040161119a906129c6565b60405180910390fd5b60005b600380549050811015611261576000600382815481106111c9576111c86129e6565b5b9060005260206000200160009054906101000a900473ffffffffffffffffffffffffffffffffffffffff1690506000600460008373ffffffffffffffffffffffffffffffffffffffff1673ffffffffffffffffffffffffffffffffffffffff1681526020019081526020016000206004015490508381111561124c578093508194505b5050808061125990612a15565b9150506111a6565b505090565b600060608060006060600080600760008973ffffffffffffffffffffffffffffffffffffffff1673ffffffffffffffffffffffffffffffffffffffff16815260200190815260200160002060000154600760008a73ffffffffffffffffffffffffffffffffffffffff1673ffffffffffffffffffffffffffffffffffffffff168152602001908152602001600020600101600760008b73ffffffffffffffffffffffffffffffffffffffff1673ffffffffffffffffffffffffffffffffffffffff168152602001908152602001600020600201600760008c73ffffffffffffffffffffffffffffffffffffffff1673ffffffffffffffffffffffffffffffffffffffff16815260200190815260200160002060030160009054906101000a900473ffffffffffffffffffffffffffffffffffffffff16600760008d73ffffffffffffffffffffffffffffffffffffffff1673ffffffffffffffffffffffffffffffffffffffff168152602001908152602001600020600701600760008e73ffffffffffffffffffffffffffffffffffffffff1673ffffffffffffffffffffffffffffffffffffffff16815260200190815260200160002060040154600760008f73ffffffffffffffffffffffffffffffffffffffff1673ffffffffffffffffffffffffffffffffffffffff16815260200190815260200160002060050160009054906101000a900460ff1685805461147d90612462565b80601f01602080910402602001604051908101604052809291908181526020018280546114a990612462565b80156114f65780601f106114cb576101008083540402835291602001916114f6565b820191906000526020600020905b8154815290600101906020018083116114d957829003601f168201915b5050505050955084805461150990612462565b80601f016020809104026020016040519081016040528092919081815260200182805461153590612462565b80156115825780601f1061155757610100808354040283529160200191611582565b820191906000526020600020905b81548152906001019060200180831161156557829003601f168201915b5050505050945082805461159590612462565b80601f01602080910402602001604051908101604052809291908181526020018280546115c190612462565b801561160e5780601f106115e35761010080835404028352916020019161160e565b820191906000526020600020905b8154815290600101906020018083116115f157829003601f168201915b505050505092509650965096509650965096509650919395979092949650565b600760205280600052604060002060009150905080600001549080600101805461165790612462565b80601f016020809104026020016040519081016040528092919081815260200182805461168390612462565b80156116d05780601f106116a5576101008083540402835291602001916116d0565b820191906000526020600020905b8154815290600101906020018083116116b357829003601f168201915b5050505050908060020180546116e590612462565b80601f016020809104026020016040519081016040528092919081815260200182805461171190612462565b801561175e5780601f106117335761010080835404028352916020019161175e565b820191906000526020600020905b81548152906001019060200180831161174157829003601f168201915b5050505050908060030160009054906101000a900473ffffffffffffffffffffffffffffffffffffffff16908060040154908060050160009054906101000a900460ff16908060060154908060070180546117b890612462565b80601f01602080910402602001604051908101604052809291908181526020018280546117e490612462565b80156118315780601f1061180657610100808354040283529160200191611831565b820191906000526020600020905b81548152906001019060200180831161181457829003601f168201915b5050505050905088565b60018060000154905081565b606060068054806020026020016040519081016040528092919081815260200182805480156118cb57602002820191906000526020600020905b8160009054906101000a900473ffffffffffffffffffffffffffffffffffffffff1673ffffffffffffffffffffffffffffffffffffffff1681526020019060010190808311611881575b5050505050905090565b60008060000154905081565b3373ffffffffffffffffffffffffffffffffffffffff16600260009054906101000a900473ffffffffffffffffffffffffffffffffffffffff1673ffffffffffffffffffffffffffffffffffffffff1614611971576040517f08c379a000000000000000000000000000000000000000000000000000000000815260040161196890612acf565b60405180910390fd5b61197b6001611b54565b60006119876001611b6a565b90506000600460008873ffffffffffffffffffffffffffffffffffffffff1673ffffffffffffffffffffffffffffffffffffffff1681526020019081526020016000209050858160010190816119dd919061263f565b50848160020190816119ef919061263f565b5081816000018190555083816003019081611a0a919061263f565b5060008160040181905550868160050160006101000a81548173ffffffffffffffffffffffffffffffffffffffff021916908373ffffffffffffffffffffffffffffffffffffffff16021790555082816006019081611a69919061263f565b506003879080600181540180825580915050600190039060005260206000200160009091909190916101000a81548173ffffffffffffffffffffffffffffffffffffffff021916908373ffffffffffffffffffffffffffffffffffffffff16021790555080600001547fd297f12b256bb8485a6013fb5e302017018123e99a0ebb20756c09e1707b4b9087878785600401548660050160009054906101000a900473ffffffffffffffffffffffffffffffffffffffff1687600601604051611b3696959493929190612aef565b60405180910390a250505050505050565b6000600380549050905090565b6001816000016000828254019250508190555050565b600081600001549050919050565b6000604051905090565b600080fd5b600080fd5b600073ffffffffffffffffffffffffffffffffffffffff82169050919050565b6000611bb782611b8c565b9050919050565b611bc781611bac565b8114611bd257600080fd5b50565b600081359050611be481611bbe565b92915050565b600080fd5b600080fd5b6000601f19601f8301169050919050565b7f4e487b7100000000000000000000000000000000000000000000000000000000600052604160045260246000fd5b611c3d82611bf4565b810181811067ffffffffffffffff82111715611c5c57611c5b611c05565b5b80604052505050565b6000611c6f611b78565b9050611c7b8282611c34565b919050565b600067ffffffffffffffff821115611c9b57611c9a611c05565b5b611ca482611bf4565b9050602081019050919050565b82818337600083830152505050565b6000611cd3611cce84611c80565b611c65565b905082815260208101848484011115611cef57611cee611bef565b5b611cfa848285611cb1565b509392505050565b600082601f830112611d1757611d16611bea565b5b8135611d27848260208601611cc0565b91505092915050565b60008060008060808587031215611d4a57611d49611b82565b5b6000611d5887828801611bd5565b945050602085013567ffffffffffffffff811115611d7957611d78611b87565b5b611d8587828801611d02565b935050604085013567ffffffffffffffff811115611da657611da5611b87565b5b611db287828801611d02565b925050606085013567ffffffffffffffff811115611dd357611dd2611b87565b5b611ddf87828801611d02565b91505092959194509250565b6000819050919050565b611dfe81611deb565b82525050565b6000602082019050611e196000830184611df5565b92915050565b600081519050919050565b600082825260208201905092915050565b6000819050602082019050919050565b611e5481611bac565b82525050565b6000611e668383611e4b565b60208301905092915050565b6000602082019050919050565b6000611e8a82611e1f565b611e948185611e2a565b9350611e9f83611e3b565b8060005b83811015611ed0578151611eb78882611e5a565b9750611ec283611e72565b925050600181019050611ea3565b5085935050505092915050565b60006020820190508181036000830152611ef78184611e7f565b905092915050565b600060208284031215611f1557611f14611b82565b5b6000611f2384828501611bd5565b91505092915050565b600081519050919050565b600082825260208201905092915050565b60005b83811015611f66578082015181840152602081019050611f4b565b60008484015250505050565b6000611f7d82611f2c565b611f878185611f37565b9350611f97818560208601611f48565b611fa081611bf4565b840191505092915050565b611fb481611bac565b82525050565b600060e0820190508181036000830152611fd4818a611f72565b90508181036020830152611fe88189611f72565b9050611ff76040830188611df5565b81810360608301526120098187611f72565b90506120186080830186611df5565b81810360a083015261202a8185611f72565b905061203960c0830184611fab565b98975050505050505050565b61204e81611deb565b811461205957600080fd5b50565b60008135905061206b81612045565b92915050565b60006020828403121561208757612086611b82565b5b60006120958482850161205c565b91505092915050565b60006020820190506120b36000830184611fab565b92915050565b600080604083850312156120d0576120cf611b82565b5b60006120de85828601611bd5565b92505060206120ef8582860161205c565b9150509250929050565b600060e08201905061210e600083018a611df5565b81810360208301526121208189611f72565b905081810360408301526121348188611f72565b905081810360608301526121488187611f72565b90506121576080830186611df5565b61216460a0830185611fab565b81810360c08301526121768184611f72565b905098975050505050505050565b60008115159050919050565b61219981612184565b82525050565b600060e0820190506121b4600083018a611df5565b81810360208301526121c68189611f72565b905081810360408301526121da8188611f72565b90506121e96060830187611fab565b81810360808301526121fb8186611f72565b905061220a60a0830185611df5565b61221760c0830184612190565b98975050505050505050565b600061010082019050612239600083018b611df5565b818103602083015261224b818a611f72565b9050818103604083015261225f8189611f72565b905061226e6060830188611fab565b61227b6080830187611df5565b61228860a0830186612190565b61229560c0830185611df5565b81810360e08301526122a78184611f72565b90509998505050505050505050565b600080600080600060a086880312156122d2576122d1611b82565b5b60006122e088828901611bd5565b955050602086013567ffffffffffffffff81111561230157612300611b87565b5b61230d88828901611d02565b945050604086013567ffffffffffffffff81111561232e5761232d611b87565b5b61233a88828901611d02565b935050606086013567ffffffffffffffff81111561235b5761235a611b87565b5b61236788828901611d02565b925050608086013567ffffffffffffffff81111561238857612387611b87565b5b61239488828901611d02565b9150509295509295909350565b7f596f752068617665206e6f20726967687420746f2070726f766964652061757460008201527f686f72697a6174696f6e20666f7220766f746500000000000000000000000000602082015250565b60006123fd603383611f37565b9150612408826123a1565b604082019050919050565b6000602082019050818103600083015261242c816123f0565b9050919050565b7f4e487b7100000000000000000000000000000000000000000000000000000000600052602260045260246000fd5b6000600282049050600182168061247a57607f821691505b60208210810361248d5761248c612433565b5b50919050565b60008190508160005260206000209050919050565b60006020601f8301049050919050565b600082821b905092915050565b6000600883026124f57fffffffffffffffffffffffffffffffffffffffffffffffffffffffffffffffff826124b8565b6124ff86836124b8565b95508019841693508086168417925050509392505050565b6000819050919050565b600061253c61253761253284611deb565b612517565b611deb565b9050919050565b6000819050919050565b61255683612521565b61256a61256282612543565b8484546124c5565b825550505050565b600090565b61257f612572565b61258a81848461254d565b505050565b5b818110156125ae576125a3600082612577565b600181019050612590565b5050565b601f8211156125f3576125c481612493565b6125cd846124a8565b810160208510156125dc578190505b6125f06125e8856124a8565b83018261258f565b50505b505050565b600082821c905092915050565b6000612616600019846008026125f8565b1980831691505092915050565b600061262f8383612605565b9150826002028217905092915050565b61264882611f2c565b67ffffffffffffffff81111561266157612660611c05565b5b61266b8254612462565b6126768282856125b2565b600060209050601f8311600181146126a95760008415612697578287015190505b6126a18582612623565b865550612709565b601f1984166126b786612493565b60005b828110156126df578489015182556001820191506020850194506020810190506126ba565b868310156126fc57848901516126f8601f891682612605565b8355505b6001600288020188555050505b505050505050565b6000815461271e81612462565b6127288186611f37565b9450600182166000811461274357600181146127595761278c565b60ff19831686528115156020028601935061278c565b61276285612493565b60005b8381101561278457815481890152600182019150602081019050612765565b808801955050505b50505092915050565b600060e08201905081810360008301526127af818a611f72565b905081810360208301526127c38189611f72565b90506127d26040830188611fab565b6127df6060830187611df5565b6127ec6080830186612190565b6127f960a0830185611df5565b81810360c083015261280b8184612711565b905098975050505050505050565b7f596f75206861766520616c726561647920766f74656400000000000000000000600082015250565b600061284f601683611f37565b915061285a82612819565b602082019050919050565b6000602082019050818103600083015261287e81612842565b9050919050565b7f596f752068617665206e6f20726967687420746f20766f746500000000000000600082015250565b60006128bb601983611f37565b91506128c682612885565b602082019050919050565b600060208201905081810360008301526128ea816128ae565b9050919050565b7f4e487b7100000000000000000000000000000000000000000000000000000000600052601160045260246000fd5b600061292b82611deb565b915061293683611deb565b925082820190508082111561294e5761294d6128f1565b5b92915050565b7f4f6e6c79206f7267616e697a65722063616e2066696e6973682074686520766f60008201527f74696e672070726f6365737320616e6420676574207468652077696e6e657200602082015250565b60006129b0603f83611f37565b91506129bb82612954565b604082019050919050565b600060208201905081810360008301526129df816129a3565b9050919050565b7f4e487b7100000000000000000000000000000000000000000000000000000000600052603260045260246000fd5b6000612a2082611deb565b91507fffffffffffffffffffffffffffffffffffffffffffffffffffffffffffffffff8203612a5257612a516128f1565b5b600182019050919050565b7f596f752068617665206e6f20617574686f72697a6174696f6e20746f2073657460008201527f2043616e64696461746500000000000000000000000000000000000000000000602082015250565b6000612ab9602a83611f37565b9150612ac482612a5d565b604082019050919050565b60006020820190508181036000830152612ae881612aac565b9050919050565b600060c0820190508181036000830152612b098189611f72565b90508181036020830152612b1d8188611f72565b90508181036040830152612b318187611f72565b9050612b406060830186611df5565b612b4d6080830185611fab565b81810360a0830152612b5f8184612711565b905097965050505050505056fea26469706673582212201601c645bb802c3c9386bf85a4d1af41e795273e565f05b7fde1d8aa6327580f64736f6c63430008120033",
  "linkReferences": {},
  "deployedLinkReferences": {}
}