{
  "_format": "hh-sol-artifact-1",
  "contractName": "Create",
  "sourceName": "contracts/VotingContract.sol",
  "abi": [
    {
      "inputs": [],
      "stateMutability": "nonpayable",
      "type": "constructor"
    },
    {
      "anonymous": false,
      "inputs": [
        {
          "indexed": true,
          "internalType": "uint256",
          "name": "candidateId",
          "type": "uint256"
        },
        {
          "indexed": false,
          "internalType": "string",
          "name": "age",
          "type": "string"
        },
        {
          "indexed": false,
          "internalType": "string",
          "name": "name",
          "type": "string"
        },
        {
          "indexed": false,
          "internalType": "string",
          "name": "image",
          "type": "string"
        },
        {
          "indexed": false,
          "internalType": "uint256",
          "name": "voteCount",
          "type": "uint256"
        },
        {
          "indexed": false,
          "internalType": "address",
          "name": "_address",
          "type": "address"
        },
        {
          "indexed": false,
          "internalType": "string",
          "name": "ipfs",
          "type": "string"
        }
      ],
      "name": "CandidateCreate",
      "type": "event"
    },
    {
      "anonymous": false,
      "inputs": [
        {
          "indexed": true,
          "internalType": "uint256",
          "name": "voter_voterId",
          "type": "uint256"
        },
        {
          "indexed": false,
          "internalType": "string",
          "name": "voter_name",
          "type": "string"
        },
        {
          "indexed": false,
          "internalType": "string",
          "name": "voter_image",
          "type": "string"
        },
        {
          "indexed": false,
          "internalType": "address",
          "name": "voter_address",
          "type": "address"
        },
        {
          "indexed": false,
          "internalType": "uint256",
          "name": "voter_allowed",
          "type": "uint256"
        },
        {
          "indexed": false,
          "internalType": "bool",
          "name": "voter_voted",
          "type": "bool"
        },
        {
          "indexed": false,
          "internalType": "uint256",
          "name": "voter_vote",
          "type": "uint256"
        },
        {
          "indexed": false,
          "internalType": "string",
          "name": "voter_ipfs",
          "type": "string"
        }
      ],
      "name": "VoterCreated",
      "type": "event"
    },
    {
      "inputs": [],
      "name": "_candidateId",
      "outputs": [
        {
          "internalType": "uint256",
          "name": "_value",
          "type": "uint256"
        }
      ],
      "stateMutability": "view",
      "type": "function"
    },
    {
      "inputs": [],
      "name": "_voterId",
      "outputs": [
        {
          "internalType": "uint256",
          "name": "_value",
          "type": "uint256"
        }
      ],
      "stateMutability": "view",
      "type": "function"
    },
    {
      "inputs": [
        {
          "internalType": "uint256",
          "name": "",
          "type": "uint256"
        }
      ],
      "name": "candidateAddress",
      "outputs": [
        {
          "internalType": "address",
          "name": "",
          "type": "address"
        }
      ],
      "stateMutability": "view",
      "type": "function"
    },
    {
      "inputs": [
        {
          "internalType": "address",
          "name": "",
          "type": "address"
        }
      ],
      "name": "candidates",
      "outputs": [
        {
          "internalType": "uint256",
          "name": "candidateId",
          "type": "uint256"
        },
        {
          "internalType": "string",
          "name": "age",
          "type": "string"
        },
        {
          "internalType": "string",
          "name": "name",
          "type": "string"
        },
        {
          "internalType": "string",
          "name": "image",
          "type": "string"
        },
        {
          "internalType": "uint256",
          "name": "voteCount",
          "type": "uint256"
        },
        {
          "internalType": "address",
          "name": "_address",
          "type": "address"
        },
        {
          "internalType": "string",
          "name": "ipfs",
          "type": "string"
        }
      ],
      "stateMutability": "view",
      "type": "function"
    },
    {
      "inputs": [],
      "name": "getCandidate",
      "outputs": [
        {
          "internalType": "address[]",
          "name": "",
          "type": "address[]"
        }
      ],
      "stateMutability": "view",
      "type": "function"
    },
    {
      "inputs": [
        {
          "internalType": "address",
          "name": "_address",
          "type": "address"
        }
      ],
      "name": "getCandidateData",
      "outputs": [
        {
          "internalType": "string",
          "name": "",
          "type": "string"
        },
        {
          "internalType": "string",
          "name": "",
          "type": "string"
        },
        {
          "internalType": "uint256",
          "name": "",
          "type": "uint256"
        },
        {
          "internalType": "string",
          "name": "",
          "type": "string"
        },
        {
          "internalType": "uint256",
          "name": "",
          "type": "uint256"
        },
        {
          "internalType": "string",
          "name": "",
          "type": "string"
        },
        {
          "internalType": "address",
          "name": "",
          "type": "address"
        }
      ],
      "stateMutability": "view",
      "type": "function"
    },
    {
      "inputs": [],
      "name": "getCandidateLength",
      "outputs": [
        {
          "internalType": "uint256",
          "name": "",
          "type": "uint256"
        }
      ],
      "stateMutability": "view",
      "type": "function"
    },
    {
      "inputs": [],
      "name": "getOrganizerAddress",
      "outputs": [
        {
          "internalType": "address",
          "name": "",
          "type": "address"
        }
      ],
      "stateMutability": "view",
      "type": "function"
    },
    {
      "inputs": [],
      "name": "getVotedVotersList",
      "outputs": [
        {
          "internalType": "address[]",
          "name": "",
          "type": "address[]"
        }
      ],
      "stateMutability": "view",
      "type": "function"
    },
    {
      "inputs": [
        {
          "internalType": "address",
          "name": "_address",
          "type": "address"
        }
      ],
      "name": "getVoterData",
      "outputs": [
        {
          "internalType": "uint256",
          "name": "",
          "type": "uint256"
        },
        {
          "internalType": "string",
          "name": "",
          "type": "string"
        },
        {
          "internalType": "string",
          "name": "",
          "type": "string"
        },
        {
          "internalType": "address",
          "name": "",
          "type": "address"
        },
        {
          "internalType": "string",
          "name": "",
          "type": "string"
        },
        {
          "internalType": "uint256",
          "name": "",
          "type": "uint256"
        },
        {
          "internalType": "bool",
          "name": "",
          "type": "bool"
        }
      ],
      "stateMutability": "view",
      "type": "function"
    },
    {
      "inputs": [],
      "name": "getVoterLength",
      "outputs": [
        {
          "internalType": "uint256",
          "name": "",
          "type": "uint256"
        }
      ],
      "stateMutability": "view",
      "type": "function"
    },
    {
      "inputs": [],
      "name": "getVoterList",
      "outputs": [
        {
          "internalType": "address[]",
          "name": "",
          "type": "address[]"
        }
      ],
      "stateMutability": "view",
      "type": "function"
    },
    {
      "inputs": [],
      "name": "getWinner",
      "outputs": [
        {
          "internalType": "address",
          "name": "winner",
          "type": "address"
        }
      ],
      "stateMutability": "view",
      "type": "function"
    },
    {
      "inputs": [
        {
          "internalType": "address",
          "name": "_address",
          "type": "address"
        },
        {
          "internalType": "string",
          "name": "_age",
          "type": "string"
        },
        {
          "internalType": "string",
          "name": "_name",
          "type": "string"
        },
        {
          "internalType": "string",
          "name": "_image",
          "type": "string"
        },
        {
          "internalType": "string",
          "name": "_ipfs",
          "type": "string"
        }
      ],
      "name": "setCandidate",
      "outputs": [],
      "stateMutability": "nonpayable",
      "type": "function"
    },
    {
      "inputs": [
        {
          "internalType": "address",
          "name": "_candidateAddress",
          "type": "address"
        },
        {
          "internalType": "uint256",
          "name": "_candidateVoteId",
          "type": "uint256"
        }
      ],
      "name": "vote",
      "outputs": [],
      "stateMutability": "nonpayable",
      "type": "function"
    },
    {
      "inputs": [
        {
          "internalType": "uint256",
          "name": "",
          "type": "uint256"
        }
      ],
      "name": "votedVoters",
      "outputs": [
        {
          "internalType": "address",
          "name": "",
          "type": "address"
        }
      ],
      "stateMutability": "view",
      "type": "function"
    },
    {
      "inputs": [
        {
          "internalType": "address",
          "name": "_address",
          "type": "address"
        },
        {
          "internalType": "string",
          "name": "_name",
          "type": "string"
        },
        {
          "internalType": "string",
          "name": "_image",
          "type": "string"
        },
        {
          "internalType": "string",
          "name": "_ipfs",
          "type": "string"
        }
      ],
      "name": "voterRight",
      "outputs": [],
      "stateMutability": "nonpayable",
      "type": "function"
    },
    {
      "inputs": [
        {
          "internalType": "address",
          "name": "",
          "type": "address"
        }
      ],
      "name": "voters",
      "outputs": [
        {
          "internalType": "uint256",
          "name": "voter_voterId",
          "type": "uint256"
        },
        {
          "internalType": "string",
          "name": "voter_name",
          "type": "string"
        },
        {
          "internalType": "string",
          "name": "voter_image",
          "type": "string"
        },
        {
          "internalType": "address",
          "name": "voter_address",
          "type": "address"
        },
        {
          "internalType": "uint256",
          "name": "voter_allowed",
          "type": "uint256"
        },
        {
          "internalType": "bool",
          "name": "voter_voted",
          "type": "bool"
        },
        {
          "internalType": "uint256",
          "name": "voter_vote",
          "type": "uint256"
        },
        {
          "internalType": "string",
          "name": "voter_ipfs",
          "type": "string"
        }
      ],
      "stateMutability": "view",
      "type": "function"
    },
    {
      "inputs": [
        {
          "internalType": "uint256",
          "name": "",
          "type": "uint256"
        }
      ],
      "name": "votersAddress",
      "outputs": [
        {
          "internalType": "address",
          "name": "",
          "type": "address"
        }
      ],
      "stateMutability": "view",
      "type": "function"
    },
    {
      "inputs": [],
      "name": "votingOrganizer",
      "outputs": [
        {
          "internalType": "address",
          "name": "",
          "type": "address"
        }
      ],
      "stateMutability": "view",
      "type": "function"
    }
  ],
  "bytecode": "0x608060405234801561001057600080fd5b5033600260006101000a81548173ffffffffffffffffffffffffffffffffffffffff021916908373ffffffffffffffffffffffffffffffffffffffff160217905550612bf5806100616000396000f3fe608060405234801561001057600080fd5b506004361061012c5760003560e01c80638ab66a90116100ad578063a738896711610071578063a738896714610386578063b28d92ae146103a4578063b9be3152146103c2578063c91ec712146103e0578063f7522a83146103fc5761012c565b80638ab66a90146102a75780638e7ea5b2146102dd5780638fb4cd80146102fb57806397d41b3514610331578063a3ec138d1461034f5761012c565b806343242daa116100f457806343242daa146101ef5780635cc48aa71461021f5780635f74bbde1461023d57806370218b85146102595780637831ffb3146102775761012c565b80630361419e1461013157806305ad45a41461014d57806313182dce1461016b5780632a466ac7146101895780633a88251a146101bf575b600080fd5b61014b60048036038101906101469190611d83565b61041a565b005b610155610699565b6040516101629190611e57565b60405180910390f35b6101736106a6565b6040516101809190611f30565b60405180910390f35b6101a3600480360381019061019e9190611f52565b610734565b6040516101b6979695949392919061200d565b60405180910390f35b6101d960048036038101906101d491906120c4565b610b7b565b6040516101e691906120f1565b60405180910390f35b610209600480360381019061020491906120c4565b610bba565b60405161021691906120f1565b60405180910390f35b610227610bf9565b60405161023491906120f1565b60405180910390f35b6102576004803603810190610252919061210c565b610c1f565b005b610261610de6565b60405161026e9190611f30565b60405180910390f35b610291600480360381019061028c91906120c4565b610e74565b60405161029e91906120f1565b60405180910390f35b6102c160048036038101906102bc9190611f52565b610eb3565b6040516102d4979695949392919061214c565b60405180910390f35b6102e5611135565b6040516102f291906120f1565b60405180910390f35b61031560048036038101906103109190611f52565b61128f565b60405161032897969594939291906121f2565b60405180910390f35b610339611657565b60405161034691906120f1565b60405180910390f35b61036960048036038101906103649190611f52565b611681565b60405161037d989796959493929190612276565b60405180910390f35b61038e61188e565b60405161039b9190611e57565b60405180910390f35b6103ac61189a565b6040516103b99190611f30565b60405180910390f35b6103ca611928565b6040516103d79190611e57565b60405180910390f35b6103fa60048036038101906103f59190612309565b611934565b005b610404611b9a565b6040516104119190611e57565b60405180910390f35b3373ffffffffffffffffffffffffffffffffffffffff16600260009054906101000a900473ffffffffffffffffffffffffffffffffffffffff1673ffffffffffffffffffffffffffffffffffffffff16146104aa576040517f08c379a00000000000000000000000000000000000000000000000000000000081526004016104a190612466565b60405180910390fd5b6104b46000611ba7565b60006104c06000611bbd565b90506000600760008773ffffffffffffffffffffffffffffffffffffffff1673ffffffffffffffffffffffffffffffffffffffff1681526020019081526020016000209050600081600401541461051657600080fd5b60018160040181905550848160010190816105319190612692565b50838160020190816105439190612692565b50858160030160006101000a81548173ffffffffffffffffffffffffffffffffffffffff021916908373ffffffffffffffffffffffffffffffffffffffff1602179055508181600001819055506103e8816006018190555060008160050160006101000a81548160ff021916908315150217905550828160070190816105c99190612692565b506006869080600181540180825580915050600190039060005260206000200160009091909190916101000a81548173ffffffffffffffffffffffffffffffffffffffff021916908373ffffffffffffffffffffffffffffffffffffffff16021790555080600001547ff5f39971dd62d9929e3a9feaa6bb77fe7c7da0001babff8a65a7e51ad0201c1986868985600401548660050160009054906101000a900460ff1687600601548860070160405161068997969594939291906127e8565b60405180910390a2505050505050565b6000600680549050905090565b6060600580548060200260200160405190810160405280929190818152602001828054801561072a57602002820191906000526020600020905b8160009054906101000a900473ffffffffffffffffffffffffffffffffffffffff1673ffffffffffffffffffffffffffffffffffffffff16815260200190600101908083116106e0575b5050505050905090565b60608060006060600060606000600460008973ffffffffffffffffffffffffffffffffffffffff1673ffffffffffffffffffffffffffffffffffffffff168152602001908152602001600020600101600460008a73ffffffffffffffffffffffffffffffffffffffff1673ffffffffffffffffffffffffffffffffffffffff168152602001908152602001600020600201600460008b73ffffffffffffffffffffffffffffffffffffffff1673ffffffffffffffffffffffffffffffffffffffff16815260200190815260200160002060000154600460008c73ffffffffffffffffffffffffffffffffffffffff1673ffffffffffffffffffffffffffffffffffffffff168152602001908152602001600020600301600460008d73ffffffffffffffffffffffffffffffffffffffff1673ffffffffffffffffffffffffffffffffffffffff16815260200190815260200160002060040154600460008e73ffffffffffffffffffffffffffffffffffffffff1673ffffffffffffffffffffffffffffffffffffffff168152602001908152602001600020600601600460008f73ffffffffffffffffffffffffffffffffffffffff1673ffffffffffffffffffffffffffffffffffffffff16815260200190815260200160002060050160009054906101000a900473ffffffffffffffffffffffffffffffffffffffff1686805461093e906124b5565b80601f016020809104026020016040519081016040528092919081815260200182805461096a906124b5565b80156109b75780601f1061098c576101008083540402835291602001916109b7565b820191906000526020600020905b81548152906001019060200180831161099a57829003601f168201915b505050505096508580546109ca906124b5565b80601f01602080910402602001604051908101604052809291908181526020018280546109f6906124b5565b8015610a435780601f10610a1857610100808354040283529160200191610a43565b820191906000526020600020905b815481529060010190602001808311610a2657829003601f168201915b50505050509550838054610a56906124b5565b80601f0160208091040260200160405190810160405280929190818152602001828054610a82906124b5565b8015610acf5780601f10610aa457610100808354040283529160200191610acf565b820191906000526020600020905b815481529060010190602001808311610ab257829003601f168201915b50505050509350818054610ae2906124b5565b80601f0160208091040260200160405190810160405280929190818152602001828054610b0e906124b5565b8015610b5b5780601f10610b3057610100808354040283529160200191610b5b565b820191906000526020600020905b815481529060010190602001808311610b3e57829003601f168201915b505050505091509650965096509650965096509650919395979092949650565b60038181548110610b8b57600080fd5b906000526020600020016000915054906101000a900473ffffffffffffffffffffffffffffffffffffffff1681565b60068181548110610bca57600080fd5b906000526020600020016000915054906101000a900473ffffffffffffffffffffffffffffffffffffffff1681565b600260009054906101000a900473ffffffffffffffffffffffffffffffffffffffff1681565b6000600760003373ffffffffffffffffffffffffffffffffffffffff1673ffffffffffffffffffffffffffffffffffffffff16815260200190815260200160002090508060050160009054906101000a900460ff1615610cb4576040517f08c379a0000000000000000000000000000000000000000000000000000000008152600401610cab906128b8565b60405180910390fd5b6000816004015403610cfb576040517f08c379a0000000000000000000000000000000000000000000000000000000008152600401610cf290612924565b60405180910390fd5b60018160050160006101000a81548160ff0219169083151502179055508181600601819055506005339080600181540180825580915050600190039060005260206000200160009091909190916101000a81548173ffffffffffffffffffffffffffffffffffffffff021916908373ffffffffffffffffffffffffffffffffffffffff1602179055508060040154600460008573ffffffffffffffffffffffffffffffffffffffff1673ffffffffffffffffffffffffffffffffffffffff1681526020019081526020016000206004016000828254610dda9190612973565b92505081905550505050565b60606003805480602002602001604051908101604052809291908181526020018280548015610e6a57602002820191906000526020600020905b8160009054906101000a900473ffffffffffffffffffffffffffffffffffffffff1673ffffffffffffffffffffffffffffffffffffffff1681526020019060010190808311610e20575b5050505050905090565b60058181548110610e8457600080fd5b906000526020600020016000915054906101000a900473ffffffffffffffffffffffffffffffffffffffff1681565b6004602052806000526040600020600091509050806000015490806001018054610edc906124b5565b80601f0160208091040260200160405190810160405280929190818152602001828054610f08906124b5565b8015610f555780601f10610f2a57610100808354040283529160200191610f55565b820191906000526020600020905b815481529060010190602001808311610f3857829003601f168201915b505050505090806002018054610f6a906124b5565b80601f0160208091040260200160405190810160405280929190818152602001828054610f96906124b5565b8015610fe35780601f10610fb857610100808354040283529160200191610fe3565b820191906000526020600020905b815481529060010190602001808311610fc657829003601f168201915b505050505090806003018054610ff8906124b5565b80601f0160208091040260200160405190810160405280929190818152602001828054611024906124b5565b80156110715780601f1061104657610100808354040283529160200191611071565b820191906000526020600020905b81548152906001019060200180831161105457829003601f168201915b5050505050908060040154908060050160009054906101000a900473ffffffffffffffffffffffffffffffffffffffff16908060060180546110b2906124b5565b80601f01602080910402602001604051908101604052809291908181526020018280546110de906124b5565b801561112b5780601f106111005761010080835404028352916020019161112b565b820191906000526020600020905b81548152906001019060200180831161110e57829003601f168201915b5050505050905087565b600080600090503373ffffffffffffffffffffffffffffffffffffffff16600260009054906101000a900473ffffffffffffffffffffffffffffffffffffffff1673ffffffffffffffffffffffffffffffffffffffff16146111cc576040517f08c379a00000000000000000000000000000000000000000000000000000000081526004016111c390612a19565b60405180910390fd5b60005b60038054905081101561128a576000600382815481106111f2576111f1612a39565b5b9060005260206000200160009054906101000a900473ffffffffffffffffffffffffffffffffffffffff1690506000600460008373ffffffffffffffffffffffffffffffffffffffff1673ffffffffffffffffffffffffffffffffffffffff16815260200190815260200160002060040154905083811115611275578093508194505b5050808061128290612a68565b9150506111cf565b505090565b600060608060006060600080600760008973ffffffffffffffffffffffffffffffffffffffff1673ffffffffffffffffffffffffffffffffffffffff16815260200190815260200160002060000154600760008a73ffffffffffffffffffffffffffffffffffffffff1673ffffffffffffffffffffffffffffffffffffffff168152602001908152602001600020600101600760008b73ffffffffffffffffffffffffffffffffffffffff1673ffffffffffffffffffffffffffffffffffffffff168152602001908152602001600020600201600760008c73ffffffffffffffffffffffffffffffffffffffff1673ffffffffffffffffffffffffffffffffffffffff16815260200190815260200160002060030160009054906101000a900473ffffffffffffffffffffffffffffffffffffffff16600760008d73ffffffffffffffffffffffffffffffffffffffff1673ffffffffffffffffffffffffffffffffffffffff168152602001908152602001600020600701600760008e73ffffffffffffffffffffffffffffffffffffffff1673ffffffffffffffffffffffffffffffffffffffff16815260200190815260200160002060040154600760008f73ffffffffffffffffffffffffffffffffffffffff1673ffffffffffffffffffffffffffffffffffffffff16815260200190815260200160002060050160009054906101000a900460ff168580546114a6906124b5565b80601f01602080910402602001604051908101604052809291908181526020018280546114d2906124b5565b801561151f5780601f106114f45761010080835404028352916020019161151f565b820191906000526020600020905b81548152906001019060200180831161150257829003601f168201915b50505050509550848054611532906124b5565b80601f016020809104026020016040519081016040528092919081815260200182805461155e906124b5565b80156115ab5780601f10611580576101008083540402835291602001916115ab565b820191906000526020600020905b81548152906001019060200180831161158e57829003601f168201915b505050505094508280546115be906124b5565b80601f01602080910402602001604051908101604052809291908181526020018280546115ea906124b5565b80156116375780601f1061160c57610100808354040283529160200191611637565b820191906000526020600020905b81548152906001019060200180831161161a57829003601f168201915b505050505092509650965096509650965096509650919395979092949650565b6000600260009054906101000a900473ffffffffffffffffffffffffffffffffffffffff16905090565b60076020528060005260406000206000915090508060000154908060010180546116aa906124b5565b80601f01602080910402602001604051908101604052809291908181526020018280546116d6906124b5565b80156117235780601f106116f857610100808354040283529160200191611723565b820191906000526020600020905b81548152906001019060200180831161170657829003601f168201915b505050505090806002018054611738906124b5565b80601f0160208091040260200160405190810160405280929190818152602001828054611764906124b5565b80156117b15780601f10611786576101008083540402835291602001916117b1565b820191906000526020600020905b81548152906001019060200180831161179457829003601f168201915b5050505050908060030160009054906101000a900473ffffffffffffffffffffffffffffffffffffffff16908060040154908060050160009054906101000a900460ff169080600601549080600701805461180b906124b5565b80601f0160208091040260200160405190810160405280929190818152602001828054611837906124b5565b80156118845780601f1061185957610100808354040283529160200191611884565b820191906000526020600020905b81548152906001019060200180831161186757829003601f168201915b5050505050905088565b60018060000154905081565b6060600680548060200260200160405190810160405280929190818152602001828054801561191e57602002820191906000526020600020905b8160009054906101000a900473ffffffffffffffffffffffffffffffffffffffff1673ffffffffffffffffffffffffffffffffffffffff16815260200190600101908083116118d4575b5050505050905090565b60008060000154905081565b3373ffffffffffffffffffffffffffffffffffffffff16600260009054906101000a900473ffffffffffffffffffffffffffffffffffffffff1673ffffffffffffffffffffffffffffffffffffffff16146119c4576040517f08c379a00000000000000000000000000000000000000000000000000000000081526004016119bb90612b22565b60405180910390fd5b6119ce6001611ba7565b60006119da6001611bbd565b90506000600460008873ffffffffffffffffffffffffffffffffffffffff1673ffffffffffffffffffffffffffffffffffffffff168152602001908152602001600020905085816001019081611a309190612692565b5084816002019081611a429190612692565b5081816000018190555083816003019081611a5d9190612692565b5060008160040181905550868160050160006101000a81548173ffffffffffffffffffffffffffffffffffffffff021916908373ffffffffffffffffffffffffffffffffffffffff16021790555082816006019081611abc9190612692565b506003879080600181540180825580915050600190039060005260206000200160009091909190916101000a81548173ffffffffffffffffffffffffffffffffffffffff021916908373ffffffffffffffffffffffffffffffffffffffff16021790555080600001547fd297f12b256bb8485a6013fb5e302017018123e99a0ebb20756c09e1707b4b9087878785600401548660050160009054906101000a900473ffffffffffffffffffffffffffffffffffffffff1687600601604051611b8996959493929190612b42565b60405180910390a250505050505050565b6000600380549050905090565b6001816000016000828254019250508190555050565b600081600001549050919050565b6000604051905090565b600080fd5b600080fd5b600073ffffffffffffffffffffffffffffffffffffffff82169050919050565b6000611c0a82611bdf565b9050919050565b611c1a81611bff565b8114611c2557600080fd5b50565b600081359050611c3781611c11565b92915050565b600080fd5b600080fd5b6000601f19601f8301169050919050565b7f4e487b7100000000000000000000000000000000000000000000000000000000600052604160045260246000fd5b611c9082611c47565b810181811067ffffffffffffffff82111715611caf57611cae611c58565b5b80604052505050565b6000611cc2611bcb565b9050611cce8282611c87565b919050565b600067ffffffffffffffff821115611cee57611ced611c58565b5b611cf782611c47565b9050602081019050919050565b82818337600083830152505050565b6000611d26611d2184611cd3565b611cb8565b905082815260208101848484011115611d4257611d41611c42565b5b611d4d848285611d04565b509392505050565b600082601f830112611d6a57611d69611c3d565b5b8135611d7a848260208601611d13565b91505092915050565b60008060008060808587031215611d9d57611d9c611bd5565b5b6000611dab87828801611c28565b945050602085013567ffffffffffffffff811115611dcc57611dcb611bda565b5b611dd887828801611d55565b935050604085013567ffffffffffffffff811115611df957611df8611bda565b5b611e0587828801611d55565b925050606085013567ffffffffffffffff811115611e2657611e25611bda565b5b611e3287828801611d55565b91505092959194509250565b6000819050919050565b611e5181611e3e565b82525050565b6000602082019050611e6c6000830184611e48565b92915050565b600081519050919050565b600082825260208201905092915050565b6000819050602082019050919050565b611ea781611bff565b82525050565b6000611eb98383611e9e565b60208301905092915050565b6000602082019050919050565b6000611edd82611e72565b611ee78185611e7d565b9350611ef283611e8e565b8060005b83811015611f23578151611f0a8882611ead565b9750611f1583611ec5565b925050600181019050611ef6565b5085935050505092915050565b60006020820190508181036000830152611f4a8184611ed2565b905092915050565b600060208284031215611f6857611f67611bd5565b5b6000611f7684828501611c28565b91505092915050565b600081519050919050565b600082825260208201905092915050565b60005b83811015611fb9578082015181840152602081019050611f9e565b60008484015250505050565b6000611fd082611f7f565b611fda8185611f8a565b9350611fea818560208601611f9b565b611ff381611c47565b840191505092915050565b61200781611bff565b82525050565b600060e0820190508181036000830152612027818a611fc5565b9050818103602083015261203b8189611fc5565b905061204a6040830188611e48565b818103606083015261205c8187611fc5565b905061206b6080830186611e48565b81810360a083015261207d8185611fc5565b905061208c60c0830184611ffe565b98975050505050505050565b6120a181611e3e565b81146120ac57600080fd5b50565b6000813590506120be81612098565b92915050565b6000602082840312156120da576120d9611bd5565b5b60006120e8848285016120af565b91505092915050565b60006020820190506121066000830184611ffe565b92915050565b6000806040838503121561212357612122611bd5565b5b600061213185828601611c28565b9250506020612142858286016120af565b9150509250929050565b600060e082019050612161600083018a611e48565b81810360208301526121738189611fc5565b905081810360408301526121878188611fc5565b9050818103606083015261219b8187611fc5565b90506121aa6080830186611e48565b6121b760a0830185611ffe565b81810360c08301526121c98184611fc5565b905098975050505050505050565b60008115159050919050565b6121ec816121d7565b82525050565b600060e082019050612207600083018a611e48565b81810360208301526122198189611fc5565b9050818103604083015261222d8188611fc5565b905061223c6060830187611ffe565b818103608083015261224e8186611fc5565b905061225d60a0830185611e48565b61226a60c08301846121e3565b98975050505050505050565b60006101008201905061228c600083018b611e48565b818103602083015261229e818a611fc5565b905081810360408301526122b28189611fc5565b90506122c16060830188611ffe565b6122ce6080830187611e48565b6122db60a08301866121e3565b6122e860c0830185611e48565b81810360e08301526122fa8184611fc5565b90509998505050505050505050565b600080600080600060a0868803121561232557612324611bd5565b5b600061233388828901611c28565b955050602086013567ffffffffffffffff81111561235457612353611bda565b5b61236088828901611d55565b945050604086013567ffffffffffffffff81111561238157612380611bda565b5b61238d88828901611d55565b935050606086013567ffffffffffffffff8111156123ae576123ad611bda565b5b6123ba88828901611d55565b925050608086013567ffffffffffffffff8111156123db576123da611bda565b5b6123e788828901611d55565b9150509295509295909350565b7f596f752068617665206e6f20726967687420746f2070726f766964652061757460008201527f686f72697a6174696f6e20666f7220766f746500000000000000000000000000602082015250565b6000612450603383611f8a565b915061245b826123f4565b604082019050919050565b6000602082019050818103600083015261247f81612443565b9050919050565b7f4e487b7100000000000000000000000000000000000000000000000000000000600052602260045260246000fd5b600060028204905060018216806124cd57607f821691505b6020821081036124e0576124df612486565b5b50919050565b60008190508160005260206000209050919050565b60006020601f8301049050919050565b600082821b905092915050565b6000600883026125487fffffffffffffffffffffffffffffffffffffffffffffffffffffffffffffffff8261250b565b612552868361250b565b95508019841693508086168417925050509392505050565b6000819050919050565b600061258f61258a61258584611e3e565b61256a565b611e3e565b9050919050565b6000819050919050565b6125a983612574565b6125bd6125b582612596565b848454612518565b825550505050565b600090565b6125d26125c5565b6125dd8184846125a0565b505050565b5b81811015612601576125f66000826125ca565b6001810190506125e3565b5050565b601f82111561264657612617816124e6565b612620846124fb565b8101602085101561262f578190505b61264361263b856124fb565b8301826125e2565b50505b505050565b600082821c905092915050565b60006126696000198460080261264b565b1980831691505092915050565b60006126828383612658565b9150826002028217905092915050565b61269b82611f7f565b67ffffffffffffffff8111156126b4576126b3611c58565b5b6126be82546124b5565b6126c9828285612605565b600060209050601f8311600181146126fc57600084156126ea578287015190505b6126f48582612676565b86555061275c565b601f19841661270a866124e6565b60005b828110156127325784890151825560018201915060208501945060208101905061270d565b8683101561274f578489015161274b601f891682612658565b8355505b6001600288020188555050505b505050505050565b60008154612771816124b5565b61277b8186611f8a565b9450600182166000811461279657600181146127ac576127df565b60ff1983168652811515602002860193506127df565b6127b5856124e6565b60005b838110156127d7578154818901526001820191506020810190506127b8565b808801955050505b50505092915050565b600060e0820190508181036000830152612802818a611fc5565b905081810360208301526128168189611fc5565b90506128256040830188611ffe565b6128326060830187611e48565b61283f60808301866121e3565b61284c60a0830185611e48565b81810360c083015261285e8184612764565b905098975050505050505050565b7f596f75206861766520616c726561647920766f74656400000000000000000000600082015250565b60006128a2601683611f8a565b91506128ad8261286c565b602082019050919050565b600060208201905081810360008301526128d181612895565b9050919050565b7f596f752068617665206e6f20726967687420746f20766f746500000000000000600082015250565b600061290e601983611f8a565b9150612919826128d8565b602082019050919050565b6000602082019050818103600083015261293d81612901565b9050919050565b7f4e487b7100000000000000000000000000000000000000000000000000000000600052601160045260246000fd5b600061297e82611e3e565b915061298983611e3e565b92508282019050808211156129a1576129a0612944565b5b92915050565b7f4f6e6c79206f7267616e697a65722063616e2066696e6973682074686520766f60008201527f74696e672070726f6365737320616e6420676574207468652077696e6e657200602082015250565b6000612a03603f83611f8a565b9150612a0e826129a7565b604082019050919050565b60006020820190508181036000830152612a32816129f6565b9050919050565b7f4e487b7100000000000000000000000000000000000000000000000000000000600052603260045260246000fd5b6000612a7382611e3e565b91507fffffffffffffffffffffffffffffffffffffffffffffffffffffffffffffffff8203612aa557612aa4612944565b5b600182019050919050565b7f596f752068617665206e6f20617574686f72697a6174696f6e20746f2073657460008201527f2043616e64696461746500000000000000000000000000000000000000000000602082015250565b6000612b0c602a83611f8a565b9150612b1782612ab0565b604082019050919050565b60006020820190508181036000830152612b3b81612aff565b9050919050565b600060c0820190508181036000830152612b5c8189611fc5565b90508181036020830152612b708188611fc5565b90508181036040830152612b848187611fc5565b9050612b936060830186611e48565b612ba06080830185611ffe565b81810360a0830152612bb28184612764565b905097965050505050505056fea26469706673582212201daa68deb562222524be8ebb79262df202ac38d42b014b174948c3deef55a69a64736f6c63430008120033",
  "linkReferences": {},
  "deployedLinkReferences": {}
}