{
  "_format": "hh-sol-artifact-1",
  "contractName": "Create",
  "sourceName": "contracts/VotingContract.sol",
  "abi": [
    {
      "inputs": [],
      "stateMutability": "nonpayable",
      "type": "constructor"
    },
    {
      "anonymous": false,
      "inputs": [
        {
          "indexed": true,
          "internalType": "uint256",
          "name": "candidateId",
          "type": "uint256"
        },
        {
          "indexed": false,
          "internalType": "string",
          "name": "age",
          "type": "string"
        },
        {
          "indexed": false,
          "internalType": "string",
          "name": "name",
          "type": "string"
        },
        {
          "indexed": false,
          "internalType": "string",
          "name": "image",
          "type": "string"
        },
        {
          "indexed": false,
          "internalType": "uint256",
          "name": "voteCount",
          "type": "uint256"
        },
        {
          "indexed": false,
          "internalType": "address",
          "name": "_address",
          "type": "address"
        },
        {
          "indexed": false,
          "internalType": "string",
          "name": "ipfs",
          "type": "string"
        }
      ],
      "name": "CandidateCreate",
      "type": "event"
    },
    {
      "anonymous": false,
      "inputs": [
        {
          "indexed": true,
          "internalType": "uint256",
          "name": "voter_voterId",
          "type": "uint256"
        },
        {
          "indexed": false,
          "internalType": "string",
          "name": "voter_name",
          "type": "string"
        },
        {
          "indexed": false,
          "internalType": "string",
          "name": "voter_image",
          "type": "string"
        },
        {
          "indexed": false,
          "internalType": "address",
          "name": "voter_address",
          "type": "address"
        },
        {
          "indexed": false,
          "internalType": "uint256",
          "name": "voter_allowed",
          "type": "uint256"
        },
        {
          "indexed": false,
          "internalType": "bool",
          "name": "voter_voted",
          "type": "bool"
        },
        {
          "indexed": false,
          "internalType": "uint256",
          "name": "voter_vote",
          "type": "uint256"
        },
        {
          "indexed": false,
          "internalType": "string",
          "name": "voter_ipfs",
          "type": "string"
        },
        {
          "indexed": false,
          "internalType": "bool",
          "name": "is_candidate",
          "type": "bool"
        }
      ],
      "name": "VoterCreated",
      "type": "event"
    },
    {
      "inputs": [],
      "name": "_candidateId",
      "outputs": [
        {
          "internalType": "uint256",
          "name": "_value",
          "type": "uint256"
        }
      ],
      "stateMutability": "view",
      "type": "function"
    },
    {
      "inputs": [],
      "name": "_voterId",
      "outputs": [
        {
          "internalType": "uint256",
          "name": "_value",
          "type": "uint256"
        }
      ],
      "stateMutability": "view",
      "type": "function"
    },
    {
      "inputs": [
        {
          "internalType": "uint256",
          "name": "",
          "type": "uint256"
        }
      ],
      "name": "candidateAddress",
      "outputs": [
        {
          "internalType": "address",
          "name": "",
          "type": "address"
        }
      ],
      "stateMutability": "view",
      "type": "function"
    },
    {
      "inputs": [
        {
          "internalType": "address",
          "name": "",
          "type": "address"
        }
      ],
      "name": "candidates",
      "outputs": [
        {
          "internalType": "uint256",
          "name": "candidateId",
          "type": "uint256"
        },
        {
          "internalType": "string",
          "name": "age",
          "type": "string"
        },
        {
          "internalType": "string",
          "name": "name",
          "type": "string"
        },
        {
          "internalType": "string",
          "name": "image",
          "type": "string"
        },
        {
          "internalType": "uint256",
          "name": "voteCount",
          "type": "uint256"
        },
        {
          "internalType": "address",
          "name": "_address",
          "type": "address"
        },
        {
          "internalType": "string",
          "name": "ipfs",
          "type": "string"
        }
      ],
      "stateMutability": "view",
      "type": "function"
    },
    {
      "inputs": [],
      "name": "getCandidate",
      "outputs": [
        {
          "internalType": "address[]",
          "name": "",
          "type": "address[]"
        }
      ],
      "stateMutability": "view",
      "type": "function"
    },
    {
      "inputs": [
        {
          "internalType": "address",
          "name": "_address",
          "type": "address"
        }
      ],
      "name": "getCandidateData",
      "outputs": [
        {
          "internalType": "string",
          "name": "",
          "type": "string"
        },
        {
          "internalType": "string",
          "name": "",
          "type": "string"
        },
        {
          "internalType": "uint256",
          "name": "",
          "type": "uint256"
        },
        {
          "internalType": "string",
          "name": "",
          "type": "string"
        },
        {
          "internalType": "uint256",
          "name": "",
          "type": "uint256"
        },
        {
          "internalType": "string",
          "name": "",
          "type": "string"
        },
        {
          "internalType": "address",
          "name": "",
          "type": "address"
        }
      ],
      "stateMutability": "view",
      "type": "function"
    },
    {
      "inputs": [],
      "name": "getCandidateLength",
      "outputs": [
        {
          "internalType": "uint256",
          "name": "",
          "type": "uint256"
        }
      ],
      "stateMutability": "view",
      "type": "function"
    },
    {
      "inputs": [],
      "name": "getOrganizerAddress",
      "outputs": [
        {
          "internalType": "address",
          "name": "",
          "type": "address"
        }
      ],
      "stateMutability": "view",
      "type": "function"
    },
    {
      "inputs": [],
      "name": "getVotedVotersList",
      "outputs": [
        {
          "internalType": "address[]",
          "name": "",
          "type": "address[]"
        }
      ],
      "stateMutability": "view",
      "type": "function"
    },
    {
      "inputs": [
        {
          "internalType": "address",
          "name": "_address",
          "type": "address"
        }
      ],
      "name": "getVoterData",
      "outputs": [
        {
          "internalType": "uint256",
          "name": "",
          "type": "uint256"
        },
        {
          "internalType": "string",
          "name": "",
          "type": "string"
        },
        {
          "internalType": "string",
          "name": "",
          "type": "string"
        },
        {
          "internalType": "address",
          "name": "",
          "type": "address"
        },
        {
          "internalType": "string",
          "name": "",
          "type": "string"
        },
        {
          "internalType": "uint256",
          "name": "",
          "type": "uint256"
        },
        {
          "internalType": "bool",
          "name": "",
          "type": "bool"
        },
        {
          "internalType": "bool",
          "name": "",
          "type": "bool"
        }
      ],
      "stateMutability": "view",
      "type": "function"
    },
    {
      "inputs": [],
      "name": "getVoterLength",
      "outputs": [
        {
          "internalType": "uint256",
          "name": "",
          "type": "uint256"
        }
      ],
      "stateMutability": "view",
      "type": "function"
    },
    {
      "inputs": [],
      "name": "getVoterList",
      "outputs": [
        {
          "internalType": "address[]",
          "name": "",
          "type": "address[]"
        }
      ],
      "stateMutability": "view",
      "type": "function"
    },
    {
      "inputs": [],
      "name": "getWinner",
      "outputs": [
        {
          "internalType": "address",
          "name": "winner",
          "type": "address"
        }
      ],
      "stateMutability": "view",
      "type": "function"
    },
    {
      "inputs": [
        {
          "internalType": "address",
          "name": "_address",
          "type": "address"
        },
        {
          "internalType": "string",
          "name": "_age",
          "type": "string"
        },
        {
          "internalType": "string",
          "name": "_name",
          "type": "string"
        },
        {
          "internalType": "string",
          "name": "_image",
          "type": "string"
        },
        {
          "internalType": "string",
          "name": "_ipfs",
          "type": "string"
        }
      ],
      "name": "setCandidate",
      "outputs": [],
      "stateMutability": "nonpayable",
      "type": "function"
    },
    {
      "inputs": [
        {
          "internalType": "address",
          "name": "_candidateAddress",
          "type": "address"
        },
        {
          "internalType": "uint256",
          "name": "_candidateVoteId",
          "type": "uint256"
        }
      ],
      "name": "vote",
      "outputs": [],
      "stateMutability": "nonpayable",
      "type": "function"
    },
    {
      "inputs": [
        {
          "internalType": "uint256",
          "name": "",
          "type": "uint256"
        }
      ],
      "name": "votedVoters",
      "outputs": [
        {
          "internalType": "address",
          "name": "",
          "type": "address"
        }
      ],
      "stateMutability": "view",
      "type": "function"
    },
    {
      "inputs": [
        {
          "internalType": "address",
          "name": "_address",
          "type": "address"
        },
        {
          "internalType": "string",
          "name": "_name",
          "type": "string"
        },
        {
          "internalType": "string",
          "name": "_image",
          "type": "string"
        },
        {
          "internalType": "string",
          "name": "_ipfs",
          "type": "string"
        }
      ],
      "name": "voterRight",
      "outputs": [],
      "stateMutability": "nonpayable",
      "type": "function"
    },
    {
      "inputs": [
        {
          "internalType": "address",
          "name": "",
          "type": "address"
        }
      ],
      "name": "voters",
      "outputs": [
        {
          "internalType": "uint256",
          "name": "voter_voterId",
          "type": "uint256"
        },
        {
          "internalType": "string",
          "name": "voter_name",
          "type": "string"
        },
        {
          "internalType": "string",
          "name": "voter_image",
          "type": "string"
        },
        {
          "internalType": "address",
          "name": "voter_address",
          "type": "address"
        },
        {
          "internalType": "uint256",
          "name": "voter_allowed",
          "type": "uint256"
        },
        {
          "internalType": "bool",
          "name": "voter_voted",
          "type": "bool"
        },
        {
          "internalType": "uint256",
          "name": "voter_vote",
          "type": "uint256"
        },
        {
          "internalType": "string",
          "name": "voter_ipfs",
          "type": "string"
        },
        {
          "internalType": "bool",
          "name": "is_candidate",
          "type": "bool"
        }
      ],
      "stateMutability": "view",
      "type": "function"
    },
    {
      "inputs": [
        {
          "internalType": "uint256",
          "name": "",
          "type": "uint256"
        }
      ],
      "name": "votersAddress",
      "outputs": [
        {
          "internalType": "address",
          "name": "",
          "type": "address"
        }
      ],
      "stateMutability": "view",
      "type": "function"
    },
    {
      "inputs": [],
      "name": "votingOrganizer",
      "outputs": [
        {
          "internalType": "address",
          "name": "",
          "type": "address"
        }
      ],
      "stateMutability": "view",
      "type": "function"
    }
  ],
  "bytecode": "0x608060405234801561001057600080fd5b5033600260006101000a81548173ffffffffffffffffffffffffffffffffffffffff021916908373ffffffffffffffffffffffffffffffffffffffff160217905550612d99806100616000396000f3fe608060405234801561001057600080fd5b506004361061012c5760003560e01c80638ab66a90116100ad578063a738896711610071578063a738896714610388578063b28d92ae146103a6578063b9be3152146103c4578063c91ec712146103e2578063f7522a83146103fe5761012c565b80638ab66a90146102a75780638e7ea5b2146102dd5780638fb4cd80146102fb57806397d41b3514610332578063a3ec138d146103505761012c565b806343242daa116100f457806343242daa146101ef5780635cc48aa71461021f5780635f74bbde1461023d57806370218b85146102595780637831ffb3146102775761012c565b80630361419e1461013157806305ad45a41461014d57806313182dce1461016b5780632a466ac7146101895780633a88251a146101bf575b600080fd5b61014b60048036038101906101469190611efa565b61041c565b005b6101556106cb565b6040516101629190611fce565b60405180910390f35b6101736106d8565b60405161018091906120a7565b60405180910390f35b6101a3600480360381019061019e91906120c9565b610766565b6040516101b69796959493929190612184565b60405180910390f35b6101d960048036038101906101d4919061223b565b610bad565b6040516101e69190612268565b60405180910390f35b6102096004803603810190610204919061223b565b610bec565b6040516102169190612268565b60405180910390f35b610227610c2b565b6040516102349190612268565b60405180910390f35b61025760048036038101906102529190612283565b610c51565b005b610261610e18565b60405161026e91906120a7565b60405180910390f35b610291600480360381019061028c919061223b565b610ea6565b60405161029e9190612268565b60405180910390f35b6102c160048036038101906102bc91906120c9565b610ee5565b6040516102d497969594939291906122c3565b60405180910390f35b6102e5611167565b6040516102f29190612268565b60405180910390f35b610315600480360381019061031091906120c9565b6112c1565b604051610329989796959493929190612369565b60405180910390f35b61033a6115c2565b6040516103479190612268565b60405180910390f35b61036a600480360381019061036591906120c9565b6115ec565b60405161037f999897969594939291906123fc565b60405180910390f35b61039061180c565b60405161039d9190611fce565b60405180910390f35b6103ae611818565b6040516103bb91906120a7565b60405180910390f35b6103cc6118a6565b6040516103d99190611fce565b60405180910390f35b6103fc60048036038101906103f7919061249e565b6118b2565b005b610406611d11565b6040516104139190611fce565b60405180910390f35b3373ffffffffffffffffffffffffffffffffffffffff16600260009054906101000a900473ffffffffffffffffffffffffffffffffffffffff1673ffffffffffffffffffffffffffffffffffffffff16146104ac576040517f08c379a00000000000000000000000000000000000000000000000000000000081526004016104a3906125fb565b60405180910390fd5b6104b66000611d1e565b60006104c26000611d34565b90506000600760008773ffffffffffffffffffffffffffffffffffffffff1673ffffffffffffffffffffffffffffffffffffffff1681526020019081526020016000209050600081600401541461051857600080fd5b60018160040181905550848160010190816105339190612827565b50838160020190816105459190612827565b50858160030160006101000a81548173ffffffffffffffffffffffffffffffffffffffff021916908373ffffffffffffffffffffffffffffffffffffffff1602179055508181600001819055506103e8816006018190555060008160050160006101000a81548160ff021916908315150217905550828160070190816105cb9190612827565b5060008160080160006101000a81548160ff0219169083151502179055506006869080600181540180825580915050600190039060005260206000200160009091909190916101000a81548173ffffffffffffffffffffffffffffffffffffffff021916908373ffffffffffffffffffffffffffffffffffffffff16021790555080600001547f4b9faa797a1a89819834183ca6d9deac77c04d32f904f363bbdcb533d5b0ac7d86868985600401548660050160009054906101000a900460ff168760060154886007018960080160009054906101000a900460ff166040516106bb98979695949392919061297d565b60405180910390a2505050505050565b6000600680549050905090565b6060600580548060200260200160405190810160405280929190818152602001828054801561075c57602002820191906000526020600020905b8160009054906101000a900473ffffffffffffffffffffffffffffffffffffffff1673ffffffffffffffffffffffffffffffffffffffff1681526020019060010190808311610712575b5050505050905090565b60608060006060600060606000600460008973ffffffffffffffffffffffffffffffffffffffff1673ffffffffffffffffffffffffffffffffffffffff168152602001908152602001600020600101600460008a73ffffffffffffffffffffffffffffffffffffffff1673ffffffffffffffffffffffffffffffffffffffff168152602001908152602001600020600201600460008b73ffffffffffffffffffffffffffffffffffffffff1673ffffffffffffffffffffffffffffffffffffffff16815260200190815260200160002060000154600460008c73ffffffffffffffffffffffffffffffffffffffff1673ffffffffffffffffffffffffffffffffffffffff168152602001908152602001600020600301600460008d73ffffffffffffffffffffffffffffffffffffffff1673ffffffffffffffffffffffffffffffffffffffff16815260200190815260200160002060040154600460008e73ffffffffffffffffffffffffffffffffffffffff1673ffffffffffffffffffffffffffffffffffffffff168152602001908152602001600020600601600460008f73ffffffffffffffffffffffffffffffffffffffff1673ffffffffffffffffffffffffffffffffffffffff16815260200190815260200160002060050160009054906101000a900473ffffffffffffffffffffffffffffffffffffffff168680546109709061264a565b80601f016020809104026020016040519081016040528092919081815260200182805461099c9061264a565b80156109e95780601f106109be576101008083540402835291602001916109e9565b820191906000526020600020905b8154815290600101906020018083116109cc57829003601f168201915b505050505096508580546109fc9061264a565b80601f0160208091040260200160405190810160405280929190818152602001828054610a289061264a565b8015610a755780601f10610a4a57610100808354040283529160200191610a75565b820191906000526020600020905b815481529060010190602001808311610a5857829003601f168201915b50505050509550838054610a889061264a565b80601f0160208091040260200160405190810160405280929190818152602001828054610ab49061264a565b8015610b015780601f10610ad657610100808354040283529160200191610b01565b820191906000526020600020905b815481529060010190602001808311610ae457829003601f168201915b50505050509350818054610b149061264a565b80601f0160208091040260200160405190810160405280929190818152602001828054610b409061264a565b8015610b8d5780601f10610b6257610100808354040283529160200191610b8d565b820191906000526020600020905b815481529060010190602001808311610b7057829003601f168201915b505050505091509650965096509650965096509650919395979092949650565b60038181548110610bbd57600080fd5b906000526020600020016000915054906101000a900473ffffffffffffffffffffffffffffffffffffffff1681565b60068181548110610bfc57600080fd5b906000526020600020016000915054906101000a900473ffffffffffffffffffffffffffffffffffffffff1681565b600260009054906101000a900473ffffffffffffffffffffffffffffffffffffffff1681565b6000600760003373ffffffffffffffffffffffffffffffffffffffff1673ffffffffffffffffffffffffffffffffffffffff16815260200190815260200160002090508060050160009054906101000a900460ff1615610ce6576040517f08c379a0000000000000000000000000000000000000000000000000000000008152600401610cdd90612a5c565b60405180910390fd5b6000816004015403610d2d576040517f08c379a0000000000000000000000000000000000000000000000000000000008152600401610d2490612ac8565b60405180910390fd5b60018160050160006101000a81548160ff0219169083151502179055508181600601819055506005339080600181540180825580915050600190039060005260206000200160009091909190916101000a81548173ffffffffffffffffffffffffffffffffffffffff021916908373ffffffffffffffffffffffffffffffffffffffff1602179055508060040154600460008573ffffffffffffffffffffffffffffffffffffffff1673ffffffffffffffffffffffffffffffffffffffff1681526020019081526020016000206004016000828254610e0c9190612b17565b92505081905550505050565b60606003805480602002602001604051908101604052809291908181526020018280548015610e9c57602002820191906000526020600020905b8160009054906101000a900473ffffffffffffffffffffffffffffffffffffffff1673ffffffffffffffffffffffffffffffffffffffff1681526020019060010190808311610e52575b5050505050905090565b60058181548110610eb657600080fd5b906000526020600020016000915054906101000a900473ffffffffffffffffffffffffffffffffffffffff1681565b6004602052806000526040600020600091509050806000015490806001018054610f0e9061264a565b80601f0160208091040260200160405190810160405280929190818152602001828054610f3a9061264a565b8015610f875780601f10610f5c57610100808354040283529160200191610f87565b820191906000526020600020905b815481529060010190602001808311610f6a57829003601f168201915b505050505090806002018054610f9c9061264a565b80601f0160208091040260200160405190810160405280929190818152602001828054610fc89061264a565b80156110155780601f10610fea57610100808354040283529160200191611015565b820191906000526020600020905b815481529060010190602001808311610ff857829003601f168201915b50505050509080600301805461102a9061264a565b80601f01602080910402602001604051908101604052809291908181526020018280546110569061264a565b80156110a35780601f10611078576101008083540402835291602001916110a3565b820191906000526020600020905b81548152906001019060200180831161108657829003601f168201915b5050505050908060040154908060050160009054906101000a900473ffffffffffffffffffffffffffffffffffffffff16908060060180546110e49061264a565b80601f01602080910402602001604051908101604052809291908181526020018280546111109061264a565b801561115d5780601f106111325761010080835404028352916020019161115d565b820191906000526020600020905b81548152906001019060200180831161114057829003601f168201915b5050505050905087565b600080600090503373ffffffffffffffffffffffffffffffffffffffff16600260009054906101000a900473ffffffffffffffffffffffffffffffffffffffff1673ffffffffffffffffffffffffffffffffffffffff16146111fe576040517f08c379a00000000000000000000000000000000000000000000000000000000081526004016111f590612bbd565b60405180910390fd5b60005b6003805490508110156112bc5760006003828154811061122457611223612bdd565b5b9060005260206000200160009054906101000a900473ffffffffffffffffffffffffffffffffffffffff1690506000600460008373ffffffffffffffffffffffffffffffffffffffff1673ffffffffffffffffffffffffffffffffffffffff168152602001908152602001600020600401549050838111156112a7578093508194505b505080806112b490612c0c565b915050611201565b505090565b600060608060006060600080600080600760008b73ffffffffffffffffffffffffffffffffffffffff1673ffffffffffffffffffffffffffffffffffffffff16815260200190815260200160002060405180610120016040529081600082015481526020016001820180546113359061264a565b80601f01602080910402602001604051908101604052809291908181526020018280546113619061264a565b80156113ae5780601f10611383576101008083540402835291602001916113ae565b820191906000526020600020905b81548152906001019060200180831161139157829003601f168201915b505050505081526020016002820180546113c79061264a565b80601f01602080910402602001604051908101604052809291908181526020018280546113f39061264a565b80156114405780601f1061141557610100808354040283529160200191611440565b820191906000526020600020905b81548152906001019060200180831161142357829003601f168201915b505050505081526020016003820160009054906101000a900473ffffffffffffffffffffffffffffffffffffffff1673ffffffffffffffffffffffffffffffffffffffff1673ffffffffffffffffffffffffffffffffffffffff168152602001600482015481526020016005820160009054906101000a900460ff16151515158152602001600682015481526020016007820180546114de9061264a565b80601f016020809104026020016040519081016040528092919081815260200182805461150a9061264a565b80156115575780601f1061152c57610100808354040283529160200191611557565b820191906000526020600020905b81548152906001019060200180831161153a57829003601f168201915b505050505081526020016008820160009054906101000a900460ff1615151515815250509050806000015181602001518260e001518360600151846040015185608001518660a001518761010001519850985098509850985098509850985050919395975091939597565b6000600260009054906101000a900473ffffffffffffffffffffffffffffffffffffffff16905090565b60076020528060005260406000206000915090508060000154908060010180546116159061264a565b80601f01602080910402602001604051908101604052809291908181526020018280546116419061264a565b801561168e5780601f106116635761010080835404028352916020019161168e565b820191906000526020600020905b81548152906001019060200180831161167157829003601f168201915b5050505050908060020180546116a39061264a565b80601f01602080910402602001604051908101604052809291908181526020018280546116cf9061264a565b801561171c5780601f106116f15761010080835404028352916020019161171c565b820191906000526020600020905b8154815290600101906020018083116116ff57829003601f168201915b5050505050908060030160009054906101000a900473ffffffffffffffffffffffffffffffffffffffff16908060040154908060050160009054906101000a900460ff16908060060154908060070180546117769061264a565b80601f01602080910402602001604051908101604052809291908181526020018280546117a29061264a565b80156117ef5780601f106117c4576101008083540402835291602001916117ef565b820191906000526020600020905b8154815290600101906020018083116117d257829003601f168201915b5050505050908060080160009054906101000a900460ff16905089565b60018060000154905081565b6060600680548060200260200160405190810160405280929190818152602001828054801561189c57602002820191906000526020600020905b8160009054906101000a900473ffffffffffffffffffffffffffffffffffffffff1673ffffffffffffffffffffffffffffffffffffffff1681526020019060010190808311611852575b5050505050905090565b60008060000154905081565b3373ffffffffffffffffffffffffffffffffffffffff16600260009054906101000a900473ffffffffffffffffffffffffffffffffffffffff1673ffffffffffffffffffffffffffffffffffffffff1614611942576040517f08c379a000000000000000000000000000000000000000000000000000000000815260040161193990612cc6565b60405180910390fd5b61194c6001611d1e565b60006119586001611d34565b90506000600460008873ffffffffffffffffffffffffffffffffffffffff1673ffffffffffffffffffffffffffffffffffffffff1681526020019081526020016000209050858160010190816119ae9190612827565b50848160020190816119c09190612827565b50818160000181905550838160030190816119db9190612827565b5060008160040181905550868160050160006101000a81548173ffffffffffffffffffffffffffffffffffffffff021916908373ffffffffffffffffffffffffffffffffffffffff16021790555082816006019081611a3a9190612827565b506003879080600181540180825580915050600190039060005260206000200160009091909190916101000a81548173ffffffffffffffffffffffffffffffffffffffff021916908373ffffffffffffffffffffffffffffffffffffffff16021790555080600001547fd297f12b256bb8485a6013fb5e302017018123e99a0ebb20756c09e1707b4b9087878785600401548660050160009054906101000a900473ffffffffffffffffffffffffffffffffffffffff1687600601604051611b0796959493929190612ce6565b60405180910390a2611b196000611d1e565b6000600760008973ffffffffffffffffffffffffffffffffffffffff1673ffffffffffffffffffffffffffffffffffffffff16815260200190815260200160002090506001816004018190555085816001019081611b779190612827565b5084816002019081611b899190612827565b50878160030160006101000a81548173ffffffffffffffffffffffffffffffffffffffff021916908373ffffffffffffffffffffffffffffffffffffffff1602179055508281600001819055506103e8816006018190555060008160050160006101000a81548160ff02191690831515021790555083816007019081611c0f9190612827565b5060018160080160006101000a81548160ff0219169083151502179055506006889080600181540180825580915050600190039060005260206000200160009091909190916101000a81548173ffffffffffffffffffffffffffffffffffffffff021916908373ffffffffffffffffffffffffffffffffffffffff16021790555080600001547f4b9faa797a1a89819834183ca6d9deac77c04d32f904f363bbdcb533d5b0ac7d87878b85600401548660050160009054906101000a900460ff168760060154886007018960080160009054906101000a900460ff16604051611cff98979695949392919061297d565b60405180910390a25050505050505050565b6000600380549050905090565b6001816000016000828254019250508190555050565b600081600001549050919050565b6000604051905090565b600080fd5b600080fd5b600073ffffffffffffffffffffffffffffffffffffffff82169050919050565b6000611d8182611d56565b9050919050565b611d9181611d76565b8114611d9c57600080fd5b50565b600081359050611dae81611d88565b92915050565b600080fd5b600080fd5b6000601f19601f8301169050919050565b7f4e487b7100000000000000000000000000000000000000000000000000000000600052604160045260246000fd5b611e0782611dbe565b810181811067ffffffffffffffff82111715611e2657611e25611dcf565b5b80604052505050565b6000611e39611d42565b9050611e458282611dfe565b919050565b600067ffffffffffffffff821115611e6557611e64611dcf565b5b611e6e82611dbe565b9050602081019050919050565b82818337600083830152505050565b6000611e9d611e9884611e4a565b611e2f565b905082815260208101848484011115611eb957611eb8611db9565b5b611ec4848285611e7b565b509392505050565b600082601f830112611ee157611ee0611db4565b5b8135611ef1848260208601611e8a565b91505092915050565b60008060008060808587031215611f1457611f13611d4c565b5b6000611f2287828801611d9f565b945050602085013567ffffffffffffffff811115611f4357611f42611d51565b5b611f4f87828801611ecc565b935050604085013567ffffffffffffffff811115611f7057611f6f611d51565b5b611f7c87828801611ecc565b925050606085013567ffffffffffffffff811115611f9d57611f9c611d51565b5b611fa987828801611ecc565b91505092959194509250565b6000819050919050565b611fc881611fb5565b82525050565b6000602082019050611fe36000830184611fbf565b92915050565b600081519050919050565b600082825260208201905092915050565b6000819050602082019050919050565b61201e81611d76565b82525050565b60006120308383612015565b60208301905092915050565b6000602082019050919050565b600061205482611fe9565b61205e8185611ff4565b935061206983612005565b8060005b8381101561209a5781516120818882612024565b975061208c8361203c565b92505060018101905061206d565b5085935050505092915050565b600060208201905081810360008301526120c18184612049565b905092915050565b6000602082840312156120df576120de611d4c565b5b60006120ed84828501611d9f565b91505092915050565b600081519050919050565b600082825260208201905092915050565b60005b83811015612130578082015181840152602081019050612115565b60008484015250505050565b6000612147826120f6565b6121518185612101565b9350612161818560208601612112565b61216a81611dbe565b840191505092915050565b61217e81611d76565b82525050565b600060e082019050818103600083015261219e818a61213c565b905081810360208301526121b2818961213c565b90506121c16040830188611fbf565b81810360608301526121d3818761213c565b90506121e26080830186611fbf565b81810360a08301526121f4818561213c565b905061220360c0830184612175565b98975050505050505050565b61221881611fb5565b811461222357600080fd5b50565b6000813590506122358161220f565b92915050565b60006020828403121561225157612250611d4c565b5b600061225f84828501612226565b91505092915050565b600060208201905061227d6000830184612175565b92915050565b6000806040838503121561229a57612299611d4c565b5b60006122a885828601611d9f565b92505060206122b985828601612226565b9150509250929050565b600060e0820190506122d8600083018a611fbf565b81810360208301526122ea818961213c565b905081810360408301526122fe818861213c565b90508181036060830152612312818761213c565b90506123216080830186611fbf565b61232e60a0830185612175565b81810360c0830152612340818461213c565b905098975050505050505050565b60008115159050919050565b6123638161234e565b82525050565b60006101008201905061237f600083018b611fbf565b8181036020830152612391818a61213c565b905081810360408301526123a5818961213c565b90506123b46060830188612175565b81810360808301526123c6818761213c565b90506123d560a0830186611fbf565b6123e260c083018561235a565b6123ef60e083018461235a565b9998505050505050505050565b600061012082019050612412600083018c611fbf565b8181036020830152612424818b61213c565b90508181036040830152612438818a61213c565b90506124476060830189612175565b6124546080830188611fbf565b61246160a083018761235a565b61246e60c0830186611fbf565b81810360e0830152612480818561213c565b905061249061010083018461235a565b9a9950505050505050505050565b600080600080600060a086880312156124ba576124b9611d4c565b5b60006124c888828901611d9f565b955050602086013567ffffffffffffffff8111156124e9576124e8611d51565b5b6124f588828901611ecc565b945050604086013567ffffffffffffffff81111561251657612515611d51565b5b61252288828901611ecc565b935050606086013567ffffffffffffffff81111561254357612542611d51565b5b61254f88828901611ecc565b925050608086013567ffffffffffffffff8111156125705761256f611d51565b5b61257c88828901611ecc565b9150509295509295909350565b7f596f752068617665206e6f20726967687420746f2070726f766964652061757460008201527f686f72697a6174696f6e20666f7220766f746500000000000000000000000000602082015250565b60006125e5603383612101565b91506125f082612589565b604082019050919050565b60006020820190508181036000830152612614816125d8565b9050919050565b7f4e487b7100000000000000000000000000000000000000000000000000000000600052602260045260246000fd5b6000600282049050600182168061266257607f821691505b6020821081036126755761267461261b565b5b50919050565b60008190508160005260206000209050919050565b60006020601f8301049050919050565b600082821b905092915050565b6000600883026126dd7fffffffffffffffffffffffffffffffffffffffffffffffffffffffffffffffff826126a0565b6126e786836126a0565b95508019841693508086168417925050509392505050565b6000819050919050565b600061272461271f61271a84611fb5565b6126ff565b611fb5565b9050919050565b6000819050919050565b61273e83612709565b61275261274a8261272b565b8484546126ad565b825550505050565b600090565b61276761275a565b612772818484612735565b505050565b5b818110156127965761278b60008261275f565b600181019050612778565b5050565b601f8211156127db576127ac8161267b565b6127b584612690565b810160208510156127c4578190505b6127d86127d085612690565b830182612777565b50505b505050565b600082821c905092915050565b60006127fe600019846008026127e0565b1980831691505092915050565b600061281783836127ed565b9150826002028217905092915050565b612830826120f6565b67ffffffffffffffff81111561284957612848611dcf565b5b612853825461264a565b61285e82828561279a565b600060209050601f831160018114612891576000841561287f578287015190505b612889858261280b565b8655506128f1565b601f19841661289f8661267b565b60005b828110156128c7578489015182556001820191506020850194506020810190506128a2565b868310156128e457848901516128e0601f8916826127ed565b8355505b6001600288020188555050505b505050505050565b600081546129068161264a565b6129108186612101565b9450600182166000811461292b576001811461294157612974565b60ff198316865281151560200286019350612974565b61294a8561267b565b60005b8381101561296c5781548189015260018201915060208101905061294d565b808801955050505b50505092915050565b6000610100820190508181036000830152612998818b61213c565b905081810360208301526129ac818a61213c565b90506129bb6040830189612175565b6129c86060830188611fbf565b6129d5608083018761235a565b6129e260a0830186611fbf565b81810360c08301526129f481856128f9565b9050612a0360e083018461235a565b9998505050505050505050565b7f596f75206861766520616c726561647920766f74656400000000000000000000600082015250565b6000612a46601683612101565b9150612a5182612a10565b602082019050919050565b60006020820190508181036000830152612a7581612a39565b9050919050565b7f596f752068617665206e6f20726967687420746f20766f746500000000000000600082015250565b6000612ab2601983612101565b9150612abd82612a7c565b602082019050919050565b60006020820190508181036000830152612ae181612aa5565b9050919050565b7f4e487b7100000000000000000000000000000000000000000000000000000000600052601160045260246000fd5b6000612b2282611fb5565b9150612b2d83611fb5565b9250828201905080821115612b4557612b44612ae8565b5b92915050565b7f4f6e6c79206f7267616e697a65722063616e2066696e6973682074686520766f60008201527f74696e672070726f6365737320616e6420676574207468652077696e6e657200602082015250565b6000612ba7603f83612101565b9150612bb282612b4b565b604082019050919050565b60006020820190508181036000830152612bd681612b9a565b9050919050565b7f4e487b7100000000000000000000000000000000000000000000000000000000600052603260045260246000fd5b6000612c1782611fb5565b91507fffffffffffffffffffffffffffffffffffffffffffffffffffffffffffffffff8203612c4957612c48612ae8565b5b600182019050919050565b7f596f752068617665206e6f20617574686f72697a6174696f6e20746f2073657460008201527f2043616e64696461746500000000000000000000000000000000000000000000602082015250565b6000612cb0602a83612101565b9150612cbb82612c54565b604082019050919050565b60006020820190508181036000830152612cdf81612ca3565b9050919050565b600060c0820190508181036000830152612d00818961213c565b90508181036020830152612d14818861213c565b90508181036040830152612d28818761213c565b9050612d376060830186611fbf565b612d446080830185612175565b81810360a0830152612d5681846128f9565b905097965050505050505056fea26469706673582212202b064ae7b7f2c51a3258fe24af535d65ed402d8dbc4fd662be97f0a58d5cac6a64736f6c63430008120033",
  "linkReferences": {},
  "deployedLinkReferences": {}
}